:020000040800F2
:10000000C8050020450100084D0100084F01000807
:1000100051010008530100085501000800000000CC
:100020000000000000000000000000005701000870
:1000300059010008000000005B0100085D01000894
:100040005F0100085F0100085F0100085F01000810
:100050005F0100085F0100085F0100085F01000800
:100060005F0100085F0100085F0100085F010008F0
:100070005F0100085F0100085F0100085F010008E0
:100080005F0100085F0100085F0100085F010008D0
:100090005F0100085F0100085F010008F34D0008E0
:1000A0005F0100085F0100085F0100085F010008B0
:1000B0002F4800085F010008B94900085F010008E7
:1000C0005F0100085F0100085F0100085F01000890
:1000D0005F010008114F00085F0100085F01000880
:1000E0005F0100085F0100085F0100085F01000870
:1000F0005F0100085F0100085F0100085F01000860
:100100005F0100085F0100085F0100085F0100084F
:100110005F0100085F0100085F0100085F0100083F
:100120005F0100085F0100085F0100085F0100082F
:10013000DFF80CD007F062FD0048004769010008B5
:10014000C80500200648804706480047FEE7FEE74E
:10015000FEE7FEE7FEE7FEE7FEE7FEE7FEE7FEE777
:100160000F7200083101000804F0D9F904F0DBF93E
:100170000121002000F065F80221002000F061F864
:100180000321002000F05DF80421002000F059F860
:1001900000200B4908700B4908704FF47A7004F086
:1001A00069F94FF47A7004F065F94FF47A7004F04D
:1001B00061F903E004F00EFD04F04BFFFAE70000E4
:1001C000750100201E00002010B50121042005F05B
:1001D000F5FA10BD08B54FF49070ADF8000010208E
:1001E0008DF8030003208DF802006946094805F0E8
:1001F00029F82021074805F0D2F84FF4807105480E
:1002000005F0CDF808BD10B5FFF7DEFFFFF7E2FF00
:1002100010BD00000008014010B5FD4AFD49FE4830
:1002200003F01FF9FD490870FD4AFE49FE4800F041
:100230003CFF10BD002800DA4042002800DB00BF70
:10024000704770B504460D46002C00DC0024B4F560
:10025000E15F01DB4FF4E154012D03D1A1B2F3487A
:1002600006F000FD022D03D1A1B2F04806F0F8FC23
:10027000032D03D1A1B2ED4806F0F0FC042D03D10B
:10028000A1B2EA4806F0F0FC70BD2DE9F047044643
:100290004FF00009322C0CDAC4F1320007F0E6FA14
:1002A0000746E34AE34B07F0F2F9054607F067FB20
:1002B0008146322C01D14FF00009322C0CDDA4F123
:1002C000320007F0D3FA0746D94ADB4B07F0DFF9D3
:1002D000054607F054FB81464846BDE8F0872DE906
:1002E000F04704464FF00009322C0CDAC4F132001A
:1002F00007F0BCFA0746CE4ACF4B07F0C8F90546CF
:1003000007F03DFB8146322C01D14FF00009322C21
:100310000CDDA4F1320007F0A9FA0746C44AC54B28
:1003200007F0B5F9054607F02AFB81464846BDE8C7
:10033000F0872DE9F14F82B000200190029807F07C
:100340000BFB04460D46BD48006807F005FB8046E0
:100350000022BB4B07F09BF9064622462B4607F0CE
:1003600096F9824607F0C0FA01900198BDE8FE8F29
:100370002DE9F05F04460D464FF00008B1480078C3
:10038000FFF783FF80464146AF48006807F010F84A
:100390008146214607F05EF80646AC4801682846CB
:1003A00007F05EF882463146A948006807F058F821
:1003B0008346514606F0FCFF814607F068FA07467F
:1003C0003846BDE8F09F2DE9F05F04460D464FF03A
:1003D0000008A0480078FFF782FF804641469E480B
:1003E000006806F0E5FF8146214607F033F806462F
:1003F0009A480168284607F033F882463146984803
:10040000006807F02DF88346514606F0D1FF81467B
:1004100007F03DFA07463846BDE8F09F2DE9F04762
:1004200005460C468F480168284607F016F88046B6
:100430008D480168204607F013F8814641468B48F5
:10044000006807F00DF88246494606F0B1FF0746FE
:1004500007F01DFA06463046BDE8F08770B57248D1
:10046000B0F9000007F0F4F9044621466948006835
:10047000FFF77EFF7E4908606A48B0F9000007F088
:10048000E7F90446214664480068FFF79CFF794974
:1004900008607948007878B9002078490860604899
:1004A000B0F9000007F0D4F9044621465848006826
:1004B000FFF7B4FF724908606F48007801280BD13C
:1004C00000206F4908606F48FFF733FF6B490860F1
:1004D0004F480068634908606748007802280BD1DC
:1004E0000020674908606848FFF723FF63490860F8
:1004F000474800685B49086064480078C0EB00101A
:1005000000EB40005A49096808445A490968084400
:100510005B49096808445949096808445C4908600E
:100520005A480078C0EB001000EB400050490968C1
:10053000084450490968401A51490968401A4F490E
:100540000968401A5349086050480078C0EB001011
:1005500000EB400046490968401A464909680844CA
:1005600047490968401A45490968401A4A490860DC
:1005700046480078C0EB001000EB40003C49096899
:10058000401A3C490968401A3D49096808443B49FA
:1005900009680844414908603D48006807F058F977
:1005A00005463F480168284606F05AFF044607F012
:1005B0006EF9374908603748006807F049F9054681
:1005C00037480168284606F04BFF044607F05FF9FC
:1005D000304908603048006807F03AF9054630486D
:1005E0000168284606F03CFF044607F050F92A4906
:1005F00008602A48006807F02BF90546284801687A
:10060000284606F02DFF044607F041F9234949E04A
:100610000C00002004000020080000200000002042
:100620001A000020160000201800002000040040DE
:100630009A9999999999C9BF9999C93F0801002038
:100640000000E03F1F00002090000020AC000020D0
:10065000A80000202000002094000020B40000200A
:10066000B000002098000020BC000020B80000204E
:100670003400002038000020210000205800002015
:100680003C0000200000AF43000048C31E000020D3
:1006900024000020280000202C0000203000002032
:1006A0005C00002008600121FE480068FFF7C9FDDA
:1006B0000221FD480068FFF7C4FD0321FB480068E4
:1006C000FFF7BFFD0421FA480068FFF7BAFD70BDCF
:1006D0002DE9FC5F04460D464FF00008F548007810
:1006E000FFF7D3FD80464146F348006806F060FE00
:1006F0008146214606F0AEFE0746F04800781E28E7
:1007000002DA0020EE490860EC4800781E2806DB7B
:100710003946EB48006806F04BFEE9490860E949B4
:10072000E748006807F052F902D8E648E449086053
:10073000E549E348006807F03FF902D8E248E0499C
:100740000860E2480168284606F08AFE0190DC480D
:100750000168DF48006806F083FE83463946DD48BD
:10076000006806F07DFE5946009006F021FE8246A4
:10077000019906F01DFE814607F089F806463046CD
:10078000BDE8FC9F2DE9F05F05460E463146284640
:1007900006F060FED0490860C84800781E2802DADA
:1007A0000020CE490860C54800781E2807DBCA48EB
:1007B0000168CA48006806F0FBFDC8490860C849DE
:1007C000C648006807F002F902D8C548C349086066
:1007D000C449C248006807F0EFF802D8C148BF49D1
:1007E0000860C1480168BC48006806F033FE8246D4
:1007F000BE480168504606F033FE8046B74801689F
:10080000BB48006806F02CFE8246B3480168B94830
:10081000006806F025FE8346514606F0C9FD814674
:10082000414606F0C5FD074607F031F80446AA48E0
:100830000068AD4908602046BDE8F09F2DE9FC5FE7
:1008400004460D464FF00008AB480078FFF747FD1F
:1008500080464146A948006806F0AAFD8146214627
:1008600006F0F8FD0746954800781E2802DA0020B9
:10087000A3490860914800781E2806DB3946A04845
:10088000006806F095FD9E4908608E499C48006806
:1008900007F09CF802D88B48994908608A49984823
:1008A000006807F089F802D887489549086095489C
:1008B0000168284606F0D4FD0190914801689248ED
:1008C000006806F0CDFD834639469048006806F082
:1008D000C7FD5946009006F06BFD8246019906F06F
:1008E00067FD814606F0D3FF06463046BDE8FC9F13
:1008F0002DE9F05F05460E463146284606F0AAFD72
:10090000834908606D4800781E2802DA002081497A
:1009100008606A4800781E2807DB7D4801687D482A
:10092000006806F045FD7B4908606D49794800681C
:1009300007F04CF802D86A4876490860694975485A
:10094000006807F039F802D86648724908607248B2
:1009500001686F48006806F07DFD82466F480168B7
:10096000504606F07DFD80466A4801686C48006884
:1009700006F076FD8246664801686A48006806F01F
:100980006FFD8346514606F013FD8146414606F051
:100990000FFD074606F07BFF04465D4800685E4990
:1009A00008602046BDE8F09F2DE9F84F06460C464A
:1009B0005D480168304606F050FD07463F48007824
:1009C0001E2802DA0020594908603C4800781E2899
:1009D00006DB39465548006806F0EAFC53490860D2
:1009E00038495248006806F0F1FF02D835484F49AF
:1009F000086035494D48006806F0DEFF02D83248ED
:100A00004A4908604A480168204606F029FD0090DE
:100A1000464801684748006806F022FD824639468C
:100A20004548006806F01CFD8346514606F0C0FCB0
:100A30008146009906F0BCFC804606F028FF05467A
:100A40002846BDE8F88F2DE9F05F05460E46314691
:100A5000284606F0FFFC39490860184800781E282F
:100A600002DA002036490860144800781E2807DBA7
:100A7000274801683248006806F09AFC304908604F
:100A800017492F48006806F0A1FF02D814482C49E6
:100A9000086014492A48006806F08EFF53D81148B0
:100AA00027494FE024000020280000202C000020CF
:100AB000300000201F0000209C0000201E000020AD
:100AC0006800002000409C4500409CC5C8000020F4
:100AD000C4000020C0000020600000206C00002046
:100AE00000803B4500803BC564000020EC000020F6
:100AF000E8000020E400002020000020A0000020EA
:100B000078000020D4000020D0000020CC0000207D
:100B1000700000207C00002074000020F8000020FD
:100B2000F4000020F0000020A40000208800002035
:100B3000E0000020DC000020D80000208000002021
:100B40008C0000200860A6480168A648006806F0EE
:100B500081FC8246A4480168504606F081FC80462C
:100B6000A2480168A248006806F07AFC82469D48C7
:100B70000168A048006806F073FC8346514606F001
:100B800017FC8146414606F013FC074606F07FFE3F
:100B9000044694480068924908602046BDE8F09FEA
:100BA00070B59548B0F9000006F052FE04462146A3
:100BB00092480068FFF78CFD914908609148B0F9B0
:100BC000000006F045FE044621468F480068FFF706
:100BD00035FE8E4908608848B0F9000006F038FEFE
:100BE00004468748006806F033FE05462146FFF7B5
:100BF000C9FD874908608348B0F9000006F028FE67
:100C000004468248006806F023FE05462146FFF7A9
:100C10006FFE8049086080480078F8B900207F495D
:100C200008607F48B0F9000006F012FE0446214635
:100C30007C480068FFF7B8FE7B4908607848B0F947
:100C4000000006F005FE04467748006806F000FE46
:100C500005462146FFF7F7FE744908606E480078A4
:100C600001280BD10020714908607148FFF761FB32
:100C70006A4908606B4800686E49086066480078F9
:100C800002280BD10020694908606B48FFF751FB2F
:100C900062490860634800686649086067480078F0
:100CA000C0EB001000EB400059490968084459495D
:100CB000096808445D4909680844584909680844B6
:100CC0005F4908605D480078C0EB001000EB400011
:100CD0004F49096808444F490968401A534909684F
:100CE000401A4E490968401A56490860534800782E
:100CF000C0EB001000EB400045490968401A454927
:100D00000968084449490968401A44490968401A71
:100D10004D49086049480078C0EB001000EB4000E6
:100D20003B490968401A3B490968401A3F4909682C
:100D300008443A4909680844444908604048006842
:100D400006F086FD054642480168284606F088FB05
:100D5000044606F09CFD3A4908603A48006806F0EF
:100D600077FD05463A480168284606F079FB0446B7
:100D700006F08DFD334908603348006806F068FDD1
:100D8000054633480168284606F06AFB044606F02B
:100D90007EFD2D4908602D48006806F059FD054686
:100DA0002B480168284606F05BFB044606F06FFD01
:100DB00026490860012122480068FFF742FA022113
:100DC00020480068FFF73DFA03211F480068FFF73D
:100DD00038FA04211D480068FFF733FA70BD00009F
:100DE0008400002080000020040100208C000020EE
:100DF00000010020FC00002018000020040000205A
:100E000040000020160000200800002044000020C0
:100E10004C0000205000002021000020580000203D
:100E20001A0000200C000020480000205400002080
:100E30000000AF43A4000020000048C31E000020B3
:100E400024000020280000202C000020300000207A
:100E50005C00002070B505460C4600F0CDF9D020AE
:100E600000F074FA00F005FA18B100F0E3F901207F
:100E700070BD284600F06AFA00F0FBF9204600F049
:100E800065FA00F0F6F918B100F0D4F90120EFE7A7
:100E900000F0D0F90020EBE770B504460025BC2C2B
:100EA00001DB012510E0622C01DB02250CE02A2C7D
:100EB00001DB032508E0142C01DB042504E00A2CE7
:100EC00001DB052500E0062529461A20FFF7C2FFB1
:100ED00070BD70B50446B4F57A7F01DD4FF47A74C5
:100EE000042C00DA04244FF47A7090FBF4F0401ED6
:100EF000C5B229461920FFF7ADFF0546264604EB8B
:100F0000D671C1F34F00FFF7C7FF70BD70B504463F
:100F100000F072F9D02000F019FA00F0AAF920468A
:100F200000F014FA00F0A5F900F066F9D12000F005
:100F30000DFA00F09EF9002000F031FA054600F0AD
:100F400079F9284670BD10B50446E006010E1C2054
:100F5000FFF780FF10BD10B50446E006010E1B2010
:100F6000FFF778FF10BD10B500F02FF980216B203E
:100F7000FFF770FF642003F07DFA00216B20FFF77C
:100F800069FF0320FFF7E7FF0020FFF7DCFF3220B7
:100F9000FFF79FFF00213820FFF75CFF00216A2048
:100FA000FFF758FF00212320FFF754FF802137204F
:100FB000FFF750FF7520FFF7A9FF0446682C0BD1FF
:100FC00001216B20FFF746FF00216C20FFF742FF55
:100FD000C820FFF77EFF01E0012010BD0020FCE7E4
:100FE0002DE9F04106460F4614461D4600F004F96F
:100FF000002141EA4601C8B200F0A8F900F039F931
:1010000020B100F017F90120BDE8F081384600F06A
:101010009DF900F02EF900F0EFF8012101EB4601F7
:10102000C8B200F093F900F024F90DE0012C04D1CE
:10103000002000F0B4F9287003E0012000F0AFF9BF
:101040002870601EC4B26D1C002CEFD100F0F2F8C5
:101050000020D9E72DE9F84F6B4602224121682094
:10106000FFF7BEFF9DF801009DF8001040EA012047
:101070000FFA80FA504606F0F9FB804600224B4BEF
:1010800006F077FB06464A4A4A4B06F059FA0446F0
:1010900006F075FC83464849584606F0E1F90446D7
:1010A00006F0F5FB00B2BDE8F88F2DE9FC410446DF
:1010B0000D4616466B46062243216820FFF790FF37
:1010C0000746BFB99DF801009DF8001040EA0120D5
:1010D00000B220809DF803009DF8021040EA012034
:1010E00000B228809DF805009DF8041040EA012018
:1010F00000B230803846BDE8FC812DE9FC41044651
:101100000D4616466B4606223B216820FFF768FF16
:101110000746BFB99DF801009DF8001040EA012084
:1011200000B220809DF803009DF8021040EA0120E3
:1011300000B228809DF805009DF8041040EA0120C7
:1011400000B230803846BDE8FC812DE9F04105460B
:101150000E461746984600F04FF8002141EA450137
:10116000C8B200F0F3F800F084F820B100F062F8A3
:101170000120BDE8F081304600F0E8F800F079F891
:1011800000240CE018F8040000F0E0F800F071F81A
:1011900018B100F04FF80120EBE7601CC4B2BC426C
:1011A000F0DB00F047F80020E3E700000040754066
:1011B000A4703D0AD74342400000C842002001E02D
:1011C000411CC8B20128FBDB704708B5012108208B
:1011D00004F0F4FAC020ADF8000010208DF80300F0
:1011E00003208DF802006946854804F02BF8C021E1
:1011F000834804F0D4F808BD00B58148006820F0A9
:1012000070607F4908600846006840F040700860E0
:1012100001207C4908607C49C1F89C01FFF7CEFFA2
:10122000002078490860FFF7C9FF00207649C1F81F
:101230009C0100BD00B57248006820F070607049E4
:1012400008600846006840F04070086000206D4962
:10125000091D08606C49C1F89801FFF7AFFF012034
:101260006849091D08606849C1F89801FFF7A6FFA1
:1012700000BD00B500226248006820F0706060493F
:1012800008600846006840F00060086001205D4981
:101290000860FFF793FF01205B49C1F89C01FFF74D
:1012A0008DFF07E0501CC2B2FA2A03DDFFF7C2FF30
:1012B000012000BD5348803800680028F2D1514910
:1012C000091D086000BFF4E700B500204D49091D65
:1012D00008604B48006820F0706049490860084683
:1012E000006840F04070086000204749C1F898014C
:1012F000FFF764FF01204349091D0860FFF75EFF07
:1013000000204149C1F89C0100BD00B500203D49C5
:10131000091D08603A48006820F07060384908608C
:101320000846006840F04070086001203649C1F866
:101330009801FFF743FF01203249091D0860FFF7BC
:101340003DFF00203049C1F89C0100BD00B50246B8
:101350002B48006820F07060294908600846006842
:1013600040F04070086000202649091D08600023F5
:1013700012E0D009234908605006020E01202249DC
:10138000C1F89C01FFF71AFF00201E49091D0860E3
:10139000FFF714FF581CC3B2082BEADB00BD10B5E1
:1013A000034600221648006820F070601449086067
:1013B0000846006840F000600860002415E0002046
:1013C0001049091D0860FFF7F9FE01200E49C1F818
:1013D0009C015006020E0B488038006808B1501C72
:1013E000C2B2FFF7EBFE601CC4B2082CE7DB13B9F6
:1013F000FFF78BFF01E0FFF767FF104610BD00000D
:10140000000C0140988121420080214238B50446F9
:10141000F74890F82400C0B114B10220009001E018
:1014200000200090F24A1268D17BF14A526810788D
:101430006B460122FFF789FE10B14FF0FF3038BD37
:101440009DF80010EA48417423E0E948807A10B919
:101450004FF0FF30F3E724B1E548407C08B10020AD
:10146000EDE714B10120009001E000200090E04A77
:101470001268D17BDE4A526810786B460122FFF772
:1014800064FE10B14FF0FF30D9E79DF80010D84846
:1014900041740020D3E738B500241FE0D448006829
:1014A000C07AA04204D0D2480068407DA04200D15A
:1014B00012E0CF49496808786B4601222146FFF7C0
:1014C0008FFD10B14FF0FF3038BD9DF80020214650
:1014D000C8A006F021FC00BF601CC4B2C44840682C
:1014E0000079A042DADC0020EEE770B504460D4634
:1014F000BF480068C07AA04204D0BD480068407D63
:10150000A04202D14FF0FF3070BDB9484068007969
:10151000A04202DC4FF0FF30F6E7B5494968087891
:101520002B4601222146FFF75BFDEDE738B5044667
:10153000AF4890F82300A04201D1002038BD14B17B
:101540003020009001E000200090A948807C20B16C
:101550009DF8000040F002000090A54890F822009D
:1015600020B19DF8000040F080000090A04A126871
:10157000117D9F4A526810786B460122FFF7E5FD06
:1015800010B14FF0FF30D9E7994880F82340002090
:10159000D4E738B5044604F0700010B10120009083
:1015A00005E014B10020009001E040200090904A36
:1015B0001268917C8E4A526810786B460122FFF7C0
:1015C000C4FD20B100218A488172481E38BD9DF8B3
:1015D000000020F04001864801730020009004F0D4
:1015E000400020B99DF8000040F00400009004F095
:1015F000200020B99DF8000040F00200009004F0A7
:10160000100020B99DF8000040F00100009004F0A7
:10161000080020B99DF8000040F038000090744A9E
:101620001268D17C724A526810786B460122FFF72B
:101630008CFD20B100216E488172481EC6E724B19E
:10164000082C02D00020FFF771FF69488472002146
:101650000175322002F00EFF0020B7E738B50446CE
:101660006348807CA04201D1002038BD002C46D0C8
:101670005F4A126811795E4A526810786B460122FF
:10168000FFF7AEFC10B14FF0FF30EEE79DF8000021
:1016900020F020000090564A12681179544A52688E
:1016A00010786B460122FFF750FD10B14FF0FF306C
:1016B000DBE7032002F0DEFE022000904C4890F8A9
:1016C000220020B19DF8000040F0800000904848C2
:1016D00090F8230020B19DF8000040F03000009009
:1016E000434A1268117D424A526810786B460122C3
:1016F000FFF72BFD002851D04FF0FF30B5E73C4AF3
:10170000126811793A4A526810786B460122FFF745
:1017100067FC10B14FF0FF30A7E73548807A00F042
:10172000010028B19DF8000040F02000009004E086
:101730009DF8000020F0200000902D4A12681179D9
:101740002B4A526810786B460122FFF7FEFC10B15D
:101750004FF0FF3089E7032002F08CFE244890F818
:10176000220010B18020009001E00020009020486D
:1017700090F8230020B19DF8000040F03000009068
:101780001B4A1268117D1A4A526810786B46012272
:10179000FFF7DBFC10B14FF0FF3066E714488474AC
:1017A000002062E708B51248807A10B94FF0FF3088
:1017B00008BD002000900E4A1268D17B0C4A526886
:1017C00010786B460122FFF7C0FC10B14FF0FF30DC
:1017D000EEE7074A12685179054A526810786B465D
:1017E0000122FFF7B2FC68B14FF0FF30E0E70000E4
:1017F0000C010020252335783A20252335780D0A61
:1018000000000000F84A12681179F74A526810780F
:101810006B460122FFF799FC10B14FF0FF30C7E78C
:10182000F14890F82400002853D00C200090EE4A94
:1018300012681179EC4A526810786B460122FFF762
:1018400084FC10B14FF0FF30B2E7322002F012FEFC
:10185000C0200090E448807A00F0010020B19DF89B
:10186000000040F020000090DF4A12681179DE4A43
:10187000526810786B460122FFF767FC10B14FF0F9
:10188000FF3095E7D848407C10B10220009001E07D
:1018900000200090D44A1268D17BD34A5268107855
:1018A0006B460122FFF751FC10B14FF0FF307FE78C
:1018B00000200090CC4A12685179CB4A52681078C7
:1018C0006B460122FFF741FC002855D04FF0FF3056
:1018D0006EE704200090C44A12681179C24A526827
:1018E00010786B460122FFF730FC10B14FF0FF304B
:1018F0005EE7BD48807C20B9BB48807A00F00100DB
:1019000010B94020009001E060200090B64A1268B3
:101910001179B54A526810786B460122FFF715FC21
:1019200010B14FF0FF3043E7322002F0A3FDAE4884
:10193000407C10B10120009001E000200090AA4AF4
:101940001268D17BA84A526810786B460122FFF7D3
:10195000FCFB10B14FF0FF302AE7A34A126851791F
:10196000A14A52681078A04B10330122FFF7EDFB1B
:1019700010B14FF0FF301BE7002019E770B50446A7
:10198000002624F00104984890F8240008B10020B3
:1019900070BD9548807A10B94FF0FF30F8E7924853
:1019A000057C807A2040904908740846007CA0425B
:1019B00002D04FF0FF3600E0002614B98A48007DBF
:1019C00018B10120FFF722FD02E00020FFF71EFD05
:1019D0003CB1FFF7E7FE20B1834805744FF0FF30BC
:1019E000D6E73046D4E738B504467F48807A10B948
:1019F0004FF0FF3038BDBC2C02DB0120009015E019
:101A0000622C02DB0220009010E02A2C02DB032073
:101A100000900BE0142C02DB0420009006E00A2C5E
:101A200002DB0520009001E0062000906E48C07A9D
:101A30009DF80010884201D10020DBE76A4A126855
:101A40009178694A526810786B460122FFF77DFB56
:101A500010B14FF0FF30CDE79DF800106248C17221
:101A60000020C7E738B50446282C02DD4FF0FF30D0
:101A700038BDDCB90020FFF759FD00208DF80000CB
:101A800007208DF80100584A1268917C564A526826
:101A900010786B460222FFF758FB10B14FF0FF3071
:101AA000E6E70021504801750020E1E70120FFF73B
:101AB0003DFD20208DF80000012C06D100208DF87E
:101AC00001000520FFF78FFF17E0052C06DC012041
:101AD0008DF801000520FFF786FF0EE0142C06DCD0
:101AE00002208DF801000A20FFF77DFF05E00320AA
:101AF0008DF801001420FFF776FF9DF80100072103
:101B000001EB8010C0B28DF80100374A1268917C59
:101B1000354A526810786B460222FFF716FB10B167
:101B20004FF0FF30A4E708212F4881720021017394
:101B3000012101750020FFF721FF002098E738B54B
:101B400004462948807A10B94FF0FF3038BD264846
:101B500090F8240010B14FF0FF30F7E72248007DE5
:101B600050B134B1282C04DCE0B2FFF77BFF002039
:101B7000ECE70020FFF776FF042C01DA042404E0F0
:101B8000B4F57A7F01DD4FF47A744FF47A7090FBEC
:101B9000F4F0401EC0B20090134A12685178124A05
:101BA000526810786B460122FFF7CFFA10B14FF060
:101BB000FF30CBE79DF80000401C4FF47A7191FB99
:101BC000F0F081B20848C1810146C9894810FFF789
:101BD0000AFF0020BAE738B504460348807A28B9DE
:101BE0004FF0FF3038BD00000C010020022C06D061
:101BF000042C07D0082C08D0102C0CD108E00020B1
:101C000000900BE00820009008E01020009005E014
:101C10001820009002E04FF0FF30E3E700BFF948E2
:101C2000407A9DF80010B0EBE10F01D10020D9E718
:101C3000F44A1268D179F34A526810786B4601224F
:101C4000FFF783FA10B14FF0FF30CBE79DF80000AB
:101C5000C110EC4841720020C4E738B50446E94899
:101C6000807A10B94FF0FF3038BDFA2C09D0B4F5A6
:101C7000FA7F09D0B4F57A7F09D0B4F5FA6F0CD1A8
:101C800008E0002000900BE00820009008E0102001
:101C9000009005E01820009002E04FF0FF30E3E7ED
:101CA00000BFD848007A9DF80010B0EBE10F01D1D9
:101CB0000020D9E7D34A12689179D24A5268107845
:101CC0006B460122FFF741FA10B14FF0FF30CBE72E
:101CD0009DF80000C010CB4908720020C4E71CB575
:101CE00080208DF80000C74A1268917CC54A52686E
:101CF00010786B460122FFF728FA10B14FF0FF3041
:101D00001CBD642002F0B6FB00208DF80000BD4A27
:101D10001268917CBB4A526810786B460122FFF72B
:101D200014FA10B14FF0FF30EAE7B64A1268917D1D
:101D3000B44A526810786B460622FFF751F910B189
:101D40004FF0FF30DCE79DF80500C007400F9DF81D
:101D5000031001F0010140EA41009DF8011001F07B
:101D6000010140EA010494B1012C03D10121A548ED
:101D7000C17431E0022C03D10021A248C1742BE0D0
:101D80002146A1A005F0C8FF4FF0FF30B8E79D4AFB
:101D90001268D1789B4A526810786B460122FFF78F
:101DA0001FF910B14FF0FF30AAE79DF8000000F0D6
:101DB0000F042CB99E4805F0AFFF4FF0FF309FE7AE
:101DC000042C06D19BA005F0A7FF01218D48C1740A
:101DD00002E000218B48C174FF218A488172FF20F4
:101DE00088490872FF2187484172C1724FF6FF711E
:101DF000C181FF21017481740121017380F82210D7
:101E0000002180F823104175017516300160416092
:101E10008160163880F8241080F82510C1844FF4B2
:101E2000FA60FFF71AFF10B14FF0FF3068E70220A9
:101E3000FFF7D1FE10B14FF0FF3061E72A20FFF726
:101E4000D2FD10B14FF0FF305AE73220FFF777FE96
:101E500010B14FF0FF3053E70020FFF78FFD10B1B6
:101E60004FF0FF304CE70020FFF7F8FB10B14FF0C8
:101E7000FF3045E70020FFF78CFB002040E770476C
:101E80007CB504460D465F48807A00F0700010B9BA
:101E90004FF0FF307CBD5B4A1268117B594A526893
:101EA00010786B460622FFF79BF810B14FF0FF3019
:101EB000F0E79DF801009DF8001040EA012000B213
:101EC00020809DF803009DF8021040EA012000B236
:101ED00060809DF805009DF8041040EA012000B2E2
:101EE000A08015B12846FFF7CAFF0020D2E77CB5D5
:101EF00004460D464348807A00F0080010B94FF0C0
:101F0000FF307CBD3F4A1268517B3E4A52681078D0
:101F10006B460622FFF764F810B14FF0FF30F0E790
:101F20009DF801009DF8001040EA012000B22080D9
:101F30009DF803009DF8021040EA012000B2608085
:101F40009DF805009DF8041040EA012000B2A08031
:101F500015B12846FFF793FF0020D2E72DE9FE4F89
:101F600005460C462748807A18B94FF0FF30BDE887
:101F7000FE8F244A1268917B224A5268107802AB85
:101F80000222FFF72DF810B14FF0FF30EFE79DF878
:101F900009009DF8081040EA012006B214B120465D
:101FA000FFF76DFF17494968C88805F05AFC1549C5
:101FB00001904968B1F9080005F04AFC83463046B3
:101FC00005F046FC5946009005F044FA8246019916
:101FD00005F078FA81461F4905F0EAF980464FF08E
:101FE0008F4105F03DFA074605F051FC28600020BE
:101FF000BDE710B588B004461CB94FF0FF3008B0FB
:1020000010BD29E00C010020556E737570706F7261
:1020100074656420736F6674776172652070726F87
:1020200064756374207265762025642E0A000000B2
:102030006896000848616C662073656E7369746900
:1020400076697479207061727420666F756E642E83
:102050000A00000000000C42206830B9606820B916
:10206000A06810B9002008B010BDFA494968087886
:1020700006AB03221146FEF7B3FF10B14FF0FF305D
:10208000F1E79DF81800082101EB201000F00F0087
:10209000ADF800009DF8190001EB201000F00F00D2
:1020A000ADF802009DF81A0001EB201000F00F00BF
:1020B000ADF8040020684100BDF90000403091FBFC
:1020C000F0F000B2ADF8100060684100BDF9020008
:1020D000403091FBF0F000B2ADF81200A068410072
:1020E000BDF90400403091FBF0F000B2ADF81400EF
:1020F000D8494968087806AB06221146FEF770FFFA
:1021000010B14FF0FF30AEE79DF819009DF81810A0
:1021100040EA012000B2ADF808009DF81B009DF8D0
:102120001A1040EA012000B2ADF80A009DF81D0027
:102130009DF81C1040EA012000B2ADF80C00BDF87B
:102140001000BDF80810084400B2ADF81000BDF84A
:102150001200BDF80A10084400B2ADF81200BDF834
:102160001400BDF80C10084400B2ADF81400BDF81E
:102170001000000A8DF81800BDF81000C0B28DF8EC
:102180001900BDF81200000A8DF81A00BDF81200FF
:10219000C0B28DF81B00BDF81400000A8DF81C00B9
:1021A000BDF81400C0B28DF81D00AA49496808782E
:1021B00006AB06221146FEF7C8FF10B14FF0FF3004
:1021C00051E700204FE70146A248007A30B10128CC
:1021D00007D0022809D003280FD10AE0FA2008808E
:1021E0000EE04FF4FA7008800AE04FF47A7008802D
:1021F00006E04FF4FA60088002E00020088000BF8B
:1022000000BF0020704701469248407A30B1012853
:1022100007D0022808D003280CD108E0022008705B
:102220000BE00420087008E00820087005E010208A
:10223000087002E04FF0FF30704700BF8548C07C57
:1022400018B108784006000E08700020F4E7014637
:102250008048C07A082817D2DFE800F01704070A80
:102260000D101318BC20088013E06220088010E0D5
:102270002A2008800DE0142008800AE00A20088047
:1022800007E00520088004E000BF00BF00200880B0
:1022900000BF00BF0020704701466E4890F8240040
:1022A00010B14FF0FF3070476A48C08908800020A5
:1022B000F9E7014600200880401E704701464FF0B4
:1022C000FF30704701466348007A30B1012807D0DB
:1022D000022808D003280CD108E05F4808600BE012
:1022E0005E48086008E05E48086005E05D480860F8
:1022F00002E04FF0FF30704700BF0020FBE70146CF
:102300005448407A30B1012808D002280AD0032866
:1023100010D10BE04FF4804008800EE041F69C7035
:1023200008800AE04FF48050088006E04FF4006017
:10233000088002E04FF0FF30704700BF4548C07C86
:1023400010B10888401008800020F5E70146414898
:10235000007C08700020704701463E48807A10B12A
:102360000120087001E0002008700020704738B597
:1023700004463848807A10B94FF0FF3038BD354AEE
:102380001268117C334A526810786B460222FEF7BD
:1023900027FE10B14FF0FF30F0E79DF801009DF8E7
:1023A000001040EA012000B220800020E6E72DE97D
:1023B000FE4F0746884692461D46DDF830B000269F
:1023C0000024244890F8240010B1601EBDE8FE8F60
:1023D000002028701F48807A10B94FF0FF30F5E7D1
:1023E0001C48007C10B94FF0FF30EFE71948007C23
:1023F00000F0400008B1B01CC6B21648007C00F0E6
:10240000200008B1B01CC6B21248007C00F01000D9
:1024100008B1B01CC6B20F48007C00F0080008B13B
:10242000B01DC6B20B4A1268917A0A4A52681078F7
:102430006B460222FEF7D4FD10B14FF0FF30C5E726
:102440009DF801009DF8001040EA0129B1450BDA22
:102450000020BBE70C010020000003430000834282
:102460003333034233338341FC4840684088B9EB3F
:10247000600F17DDF94A1268517CF84A52681078EB
:102480006B460122FEF7ACFD10B14FF0FF309DE727
:102490009DF8000000F0100020B1FFF783F96FF005
:1024A000010093E75046FFF7EAFCEC4A1268D17A44
:1024B000EA4A526810786B463246FEF791FD10B139
:1024C0004FF0FF3082E799FBF6F0401E8BF80000DA
:1024D00000202870B4422AD0E048007C00F00800B8
:1024E00028B3601C1DF800001DF8041040EA01200C
:1024F00000B2A8F80000E01C1DF80010A01C1DF898
:10250000000041EA002000B2A8F80200601D1DF89A
:102510000010201D1DF8000041EA002000B2A8F8BC
:102520000400287840F008002870A01D84B2B4424E
:1025300013D0CA48007C00F0400070B1601C1DF848
:1025400000001DF8041040EA012000B2388028780D
:1025500040F040002870A01C84B2B44213D0BF48A1
:10256000007C00F0200070B1601C1DF800001DF818
:10257000041040EA012000B27880287840F0200062
:102580002870A01C84B2B44213D0B448007C00F080
:10259000100070B1601C1DF800001DF8041040EA26
:1025A000012000B2B880287840F010002870A01CEC
:1025B00084B200200AE7F8B504460F461646A7483D
:1025C00090F8240010B94FF0FF30F8BDA348807A8E
:1025D00010B94FF0FF30F8E7A04A1268917A9F4A8D
:1025E000526810786B460222FEF7FAFC10B14FF0E9
:1025F000FF30EAE79DF801009DF8001040EA012550
:10260000A54203DA00203070401EDEE793484068A0
:102610004088B5EB600F17DD904A1268517C8F4AF5
:10262000526810786B460122FEF7DAFC10B14FF0C9
:10263000FF30CAE79DF8000000F0100020B1FFF75E
:10264000B1F86FF00100C0E7E2B2844B1B68D97AA1
:10265000824B5B6818783B46FEF7C2FC10B14FF026
:10266000FF30B2E795FBF4F0401E30700020ACE77D
:1026700001467A4880F82210002070477CB5054654
:1026800076494968087801AB04220D21FEF7A8FCC1
:1026900008B107207CBD9DF80700C0F301109DF82C
:1026A000041001F0E00140EAE1008DF800009DF81F
:1026B0000700C0F381009DF8051001F0E00140EA39
:1026C000E1008DF801009DF8070000F003009DF87F
:1026D000061001F0E00140EAE1008DF8020000245C
:1026E0001CE01DF8040018B9002045F8240013E090
:1026F0005B4845F8240006E055F82400594904F0E9
:10270000AFFE45F824001DF80400401EC0B20DF8CD
:1027100004000028F0D100BF601CC4B2032CE0DB31
:102720000020B7E72DE9FE4F06460F460025684614
:10273000FFF7A4FF002442E056F8240057F82410C5
:10274000A0EB010ABAF1000F01DB514601E0CAF12A
:102750000001084605F07CF883464FF08F4104F0F5
:10276000B1FE80465DF82400002105F025F916D061
:102770005DF82410404604F0A5FE82464FF07E51DD
:1027800004F068FE814629F0004A3748416A504605
:1027900005F01CF912D20120A04005430EE032489A
:1027A000C169404605F008F905D32F48016A404643
:1027B00005F00CF902D20120A0400543641C032C53
:1027C000BADB2846BDE8FE8F2DE9FC5F06460F46C2
:1027D000002522494968087801AB03220D21FEF744
:1027E000FFFB10B10720BDE8FC9F9DF8040000F03E
:1027F0001F008DF804009DF8050000F01F008DF803
:1028000005009DF8060000F01F008DF8060000246A
:1028100062E056F8240057F82410A0EB010BBBF13E
:10282000000F01DB594601E0CBF10001084605F03D
:102830000FF84FF08F41009004F044FE814601A84C
:10284000005DC0B30849086805F00BF88346594697
:10285000064804F037FE80460FE000000C0100201F
:102860007B14AE3E1D5A843F5889000800B04C4589
:10287000FE49404604F0F4FD804601A8005D401E7C
:10288000C0B201A908550028F2D14146484604F0DB
:1028900019FE83464FF07E5104F0DCFD82462AF09B
:1028A000004BF3488169584605F090F813D2012097
:1028B000A04005430FE0FFE7ED480169484605F0F9
:1028C0007BF805D3EA484169484605F07FF802D213
:1028D0000120A0400543641C032C9ADB284682E7B4
:1028E0002DE9F04F87B005460C46914601208DF842
:1028F000100000208DF81100DE4A1268917CDD4A3C
:102900005268107804AB0222FEF71FFC20B14FF092
:10291000FF3007B0BDE8F08FC82001F0ABFD00200C
:102920008DF81000D34A1268D17BD24A52681078D1
:1029300004AB0122FEF709FC10B14FF0FF30E8E7CD
:10294000CC4A12685179CB4A5268107804AB012204
:10295000FEF7FBFB10B14FF0FF30DAE7C54A126813
:10296000917CC44A5268107804AB0122FEF7EDFB5B
:1029700010B14FF0FF30CCE7BE4A1268D17DBD4A9E
:102980005268107804AB0122FEF7DFFB10B14FF064
:10299000FF30BEE7B74A12681179B64A526810781C
:1029A00004AB0122FEF7D1FB10B14FF0FF30B0E7CE
:1029B0000C208DF81000AF4A12681179AD4A5268A8
:1029C000107804AB0122FEF7C0FB10B14FF0FF30CE
:1029D0009FE70F2001F04EFDA648806A407A8DF8EF
:1029E0001000A44A12689178A24A5268107804AB89
:1029F0000122FEF7AAFB10B14FF0FF3089E79D4896
:102A0000806A007A8DF810009A4A12685178994AC3
:102A10005268107804AB0122FEF797FB10B14FF01B
:102A2000FF3076E7B9F1000F07D09248806A807ACC
:102A300040F0E0008DF8100004E08E48806A807A53
:102A40008DF810008B4A126891798A4A5268107882
:102A500004AB0122FEF779FB10B14FF0FF3058E7CD
:102A6000B9F1000F07D08348806AC07A40F0E000D7
:102A70008DF8100003E07E48C07A8DF810007D4A82
:102A80001268D1797B4A5268107804AB0122FEF7B4
:102A90005CFB10B14FF0FF303BE7B9F1000F02D003
:102AA000C82001F0E7FC40208DF81000714A126840
:102AB0001179704A5268107804AB0122FEF745FB89
:102AC00010B14FF0FF3024E778208DF81000694AEC
:102AD00012685179674A5268107804AB0122FEF7F8
:102AE00034FB10B14FF0FF3013E76149888901F0E2
:102AF000C1FC00208DF810005E4A126851795D4AD1
:102B00005268107804AB0122FEF71FFB10B14FF0A2
:102B1000FF30FEE6574A1268917A564A526810789A
:102B200004AB0222FEF75CFA10B14FF0FF30F0E682
:102B30009DF811009DF8101040EA012B0C209BFB22
:102B4000F0F0C6B20020A86068602860A0606060F5
:102B50002060824665E0474A1268D17A454A526849
:102B6000107804AB0C22FEF73BFA10B14FF0FF30A7
:102B7000CFE69DF811009DF8101040EA012000B248
:102B8000ADF808009DF813009DF8121040EA0120EE
:102B900000B2ADF80A009DF815009DF8141040EA47
:102BA000012000B2ADF80C00BDF9081020680844FF
:102BB0002060BDF90A10606808446060BDF90C101F
:102BC000A0680844A0609DF817009DF8161040EA20
:102BD000012000B2ADF800009DF819009DF8181012
:102BE00040EA012000B2ADF802009DF81B009DF8FC
:102BF0001A1040EA012000B2ADF80400BDF900103F
:102C0000286808442860BDF90210686808446860B4
:102C1000BDF90410A8680844A8600AF1010000F09A
:102C2000FF0AB24597DB1248D0F800C02868C117E8
:102C3000090441EA1041070462460023384604F0C3
:102C400067FB32460023CDE9020104F061FB2860F6
:102C50000748D0F800C06868C117090441EA10416C
:102C6000070462460023384606E0000054E3853F2F
:102C7000588900080C01002004F04AFB324600236A
:102C8000CDE9020104F044FB6860FE48D0F800C0C2
:102C9000A868C117090441EA1041070462460023ED
:102CA000384604F035FB32460023CDE9020104F03A
:102CB0002FFBA860F348D0F804C02168C8170004AF
:102CC00040EA11480F04624600233846414604F0AA
:102CD0001FFB32460023CDE9020104F019FB2060FE
:102CE000E848D0F804C06068C117090441EA1041FF
:102CF000070462460023384604F00AFB32460023EC
:102D0000CDE9020104F004FB6060DE48D0F804C0A5
:102D1000A068C117090441EA104107046246002374
:102D2000384604F0F5FA32460023CDE9020104F0FA
:102D3000EFFAA060A068002804DDA068A0F580304C
:102D4000A06003E0A06800F58030A0600020E0E50E
:102D500038B50446CC4890F82400A04201D10020A8
:102D600038BD24B3C84890F8250010B94FF0FF30A3
:102D7000F6E70020FEF74AFB0020FEF76FFCC24991
:102D8000C88CFEF7DCFE00200090BF494968087837
:102D90006B4601222321FEF7D8F90121BA4880F8B9
:102DA00024100120FEF732FBFEF7FCFC13E00020AC
:102DB000FEF72CFBB448007C0090B34949680878C2
:102DC0006B4601222321FEF7C0F90021AE4880F8AE
:102DD0002410FEF7E7FC0020C2E72DE9F04F8DB08C
:102DE00083460F4602200C90A74890F8240020B19B
:102DF0000020FFF7ADFF012600E0002603A8FFF743
:102E0000E2F905A8FFF7FFF901A8FFF720FA02A8E9
:102E1000FFF742FA9C4890F80AA004A8FFF796FA38
:102E2000002407E0002239465846FFF759FD00B953
:102E300002E0641C022CF5DB00BF022C01D100254E
:102E400028E0002407E0012206A909A8FFF748FDB1
:102E500000B902E0641C022CF5DB00BF022C01D19A
:102E6000002517E006A93846FFF75CFC00F0FF08D4
:102E700009A95846FFF7A8FC00F0FF090025B9F1A1
:102E8000000F01D145F00105B8F1000F01D145F067
:102E9000020500BFFF207C490872FF217A48417279
:102EA000C1724FF6FF71C181FF218172017401214E
:102EB0000173BDF80C00FEF7D0FE9DF81400FEF77C
:102EC0008AFEBDF80400FEF78EFDBDF80800FEF78F
:102ED00036FE5046FEF75DFB9DF81000FEF74EFDF6
:102EE00016B10120FFF734FF28460DB0BDE8F08F82
:102EF000F8B504460D46164616B94FF0FF30F8BD3A
:102F00006148807A10B94FF0FF30F8E720128DF851
:102F10000000E0B28DF801009DF8010028445A49F4
:102F200049684989884202DD4FF0FF30E7E7564A99
:102F30001268117E544A526810786B460222FEF7DE
:102F400004F910B14FF0FF30D9E7EAB24E4B1B68DD
:102F5000597D4D4B5B6818783346FEF7F6F810B193
:102F60004FF0FF30CBE70020C9E7F8B504460D4627
:102F7000164616B94FF0FF30F8BD4348807A10B9B5
:102F80004FF0FF30F8E720128DF80000E0B28DF826
:102F900001009DF8010028443B494968498988425D
:102FA00002DD4FF0FF30E7E7374A1268117E364AFC
:102FB000526810786B460222FEF7C7F810B14FF046
:102FC000FF30D9E7EAB2304B1B68597D2E4B5B6866
:102FD00018783346FEF704F810B14FF0FF30CBE716
:102FE0000020C9E72DE9F04385B005460E4690461E
:102FF0009946254890F8250020B14FF0FF3005B0E4
:10300000BDE8F08316B94FF0FF30F8E7002423E065
:10301000281B102801DD102000E0281B87B2321980
:1030200039462046FFF764FF10B14FF0FF30E6E766
:1030300001AA39462046FFF798FF10B14FF0FF3044
:10304000DDE730193A4601A904F0A5F910B16FF097
:103050000100D4E7E01984B2AC42D9DB4FEA282062
:103060008DF8000008F0FF008DF80100064A126894
:10307000917E054A526810786B460222FEF765F889
:1030800038B103E0588900080C0100204FF0FF30F0
:10309000B5E70121FE4880F82510A0F82690002011
:1030A000ADE70146FA4890F8240008700020704708
:1030B0004FF0FF30704702464FF0FF307047014637
:1030C0004FF0FF307047F8B505460F461446002C08
:1030D00070D0B5F5FF5F01DDFF2605E0202D01DA98
:1030E000012601E0C5F3471607B90127282C02DDA8
:1030F0004FF0FF30F8BDE648407D28BBE44890F82B
:10310000240038B10020FFF723FE0121E04880F8B9
:10311000201003E00021DE4880F82010DC48163043
:10312000FFF751F8DA481830FFF76DF8D8481A3031
:10313000FFF78DF8D6481C30FFF7AEF8D448817AF7
:1031400081771F30FFF702F90020FEF75FF90020BA
:10315000FEF788FC00208DF80000CD4A12689178B7
:10316000CB4A526810786B460122FDF7EEFF10B192
:103170004FF0FF30BEE740208DF80000C44A1268CF
:10318000D17BC34A526810786B460122FDF7DDFF00
:1031900000B165E08DF800608DF80170BC4A1268DE
:1031A000117ABB4A526810786B460222FDF7CDFFB8
:1031B00008B155E047E0052001F05CF9B448407AD9
:1031C000072101EBC000C0B28DF80000B04A1268C0
:1031D000D179AF4A526810786B460122FDF7B5FFEE
:1031E00000B13DE020208DF80000012C03D100202B
:1031F0008DF801000EE0052C03DC01208DF80100A4
:1032000008E0142C03DC02208DF8010002E003200A
:103210008DF801009DF80100072101EB8010C0B27C
:103220008DF801009A4A1268917C994A5268107888
:103230006B460222FDF789FF00B111E0012194489D
:103240004175002056E7924A1632002103E0505C97
:1032500000B105E0491C0C29F9D34FF0FF3049E7D4
:10326000FF208B490872FF2189484172C1724FF6D5
:10327000FF71C181FF218172017401210173014637
:10328000887FFEF786F98249C88AFEF7E6FC804906
:10329000087EFEF7A0FC7E49488BFEF7A4FB7C4924
:1032A000888BFEF74CFC7A49C87FFEF767FB7848AD
:1032B00090F8200010B10120FFF74AFD002174486A
:1032C0004175002016E770B588B002A905A8FFF780
:1032D00084FD0446032C40D101A8FEF7F3FF0598B6
:1032E00004F0B6FA0646019904F0BAF8054604F06F
:1032F000CEFA0590069804F0ABFA0646019904F060
:10330000AFF8054604F0C3FA0690079804F0A0FA57
:103310000646019904F0A4F8054604F0B8FA0790AF
:1033200005A800F050FA6846FEF7E9FF002000907B
:10333000BDF80010029848430290BDF800100398B1
:1033400048430390BDF8001004984843049002A835
:1033500000F0CCFA002008B070BD0120FBE7014668
:1033600091F90020002A01DD00201EE091F90020E3
:10337000002A01DA042018E091F90120002A01DD79
:10338000012012E091F90120002A01DA05200CE069
:1033900091F90220002A01DD022006E091F90220C5
:1033A000002A01DA062000E00720704710B5044625
:1033B0002046FFF7D4FF0346E01CFFF7D0FF43EAA7
:1033C000C00083B2A01DFFF7CAFF43EA801083B29A
:1033D000184610BD70B50024FDF7F7FEFEF77FFC20
:1033E00000283AD17820FEF7D4F8C4B20CB10120FD
:1033F00070BD7820FEF7C2FAC4B20CB10220F7E724
:10340000C820FEF79CFBC4B20CB10320F0E700F02B
:103410003FF9C4B20CB10420EAE71E48FFF7C6FF2B
:10342000054600F03FF9C4B20CB10520E0E740F2D8
:10343000731000F078FDC4B20CB10620D8E7C820A4
:1034400000F0EAFAC4B20CB10720D1E70120FFF77F
:103450007FFCC4B21CB10920CAE70A20C8E70020DB
:10346000C6E72DE9F04F99B004460D4616464FF0D9
:103470007E574FF000084FF000094FF0000A12A8E5
:1034800013A918AB0EAACDE9001014A916A803E0E1
:103490000C0100203801002000F0A4FE18B101202A
:1034A00019B0BDE8F08FBDF84C0000F48070002822
:1034B0007ED00E9804F0CCF983464FF09D4104F085
:1034C00001F807460F9804F0C3F983464FF09D4179
:1034D00003F0F8FF8046109804F0BAF983464FF0E5
:1034E0009D4103F0EFFF8146119804F0B1F9834646
:1034F0004FF09D4103F0E6FF824639464FF0804091
:1035000003F0AEFF4946059003F0AAFF414607903D
:103510004FF0404003F0A4FF5146059003F0A0FF98
:103520000690079903F044FF834604F015FACDE9AD
:10353000080104F0C5FE4FF06632544BCDE90A0194
:1035400004F0A5F8CDE90C0104F019FA2060494611
:103550004FF0804003F084FF4946029003F080FF63
:10356000414604904FF0404003F07AFF41460290FC
:1035700003F076FF0390049903F06CFF83464FF04D
:103580007E5103F015FF059004F0E6F9CDE908013E
:1035900039464FF0804003F063FF4146039003F04B
:1035A0005FFF494604904FF0804003F059FF00E070
:1035B00068E05146039003F053FF8346049903F0FB
:1035C000F7FE059004F0C8F9CDE90601DDE908230E
:1035D00005F0BEF84FF066322C4BCDE90A0104F03D
:1035E00056F8CDE90C0104F0CAF92860514650465E
:1035F00003F036FF49460490484603F031FF414648
:103600000390404603F02CFF39460190384603F002
:1036100027FF0090019903F0CBFE0290039903F07D
:1036200019FF8346049903F015FF059004F094F9FF
:10363000CDE908015146384603F012FF494604908F
:10364000404603F00DFF0390049903F0B1FE4FF0E4
:103650008041059003F004FF834604F07DF9CDE935
:103660000601DDE9082305F073F84FF06632074BD9
:10367000CDE90A0104F00BF8CDE90C0104F07FF963
:10368000306001E002200BE7002009E766A64C400D
:1036900010B5C8234FF48062F74940F6F630FFF7C3
:1036A000A1FC10BD10B586B00446F4A000680390DC
:1036B000F3A000680290F3A000680190F2A00068F7
:1036C000009004F0030003A9085C8DF8140003A81F
:1036D000C4F3C101405C8DF8150003A8C4F3811147
:1036E000405C8DF8160004F0030002A9085C8DF818
:1036F000100002A8C4F3C101405C8DF8110002A8BB
:10370000C4F38111405C8DF8120005AA032140F238
:103710002640FFF7EDFB18B14FF0FF3006B010BDAB
:1037200004AA032140F22A40FFF7E2FB10B14FF058
:10373000FF30F3E7019805900098049004F004002E
:1037400058B19DF8140040F001008DF814009DF868
:10375000100040F001008DF8100004F0200058B176
:103760009DF8150040F001008DF815009DF811003E
:1037700040F001008DF8110004F4807058B19DF8FC
:10378000160040F001008DF816009DF8120040F080
:1037900001008DF8120005AA03214FF48860FFF79D
:1037A000A7FB10B14FF0FF30B8E704AA032140F2A5
:1037B0003140FFF79DFB10B14FF0FF30AEE7B3484B
:1037C00004810020AAE71FB50446B048007A00F043
:1037D000030054F820000190AC48007A00F0040087
:1037E00010B1019840420190A848007AC0F3C1008E
:1037F00054F820000290A548007A00F0200010B193
:10380000029840420290A148007AC0F3811054F817
:10381000200003909D48008900F4807010B1039847
:10382000404203909A49019880FB0101800F40EAD1
:10383000810001909649029880FB0110820042EAC3
:10384000917002909249039880FB0110820042EA35
:10385000917003900198000E8DF800000198000C03
:103860008DF801000198000A8DF802000198C0B29D
:103870008DF803006A4604214FF47470FFF738FB9B
:1038800018B14FF0FF3004B010BD0298000E8DF853
:1038900000000298000C8DF801000298000A8DF8D3
:1038A00002000298C0B28DF803006A4604214FF46A
:1038B0007570FFF71DFB10B14FF0FF30E3E7039881
:1038C000000E8DF800000398000C8DF8010003989D
:1038D000000A8DF802000398C0B28DF803006A4612
:1038E00004214FF47670FFF703FBCCE770B588B086
:1038F000064601A8FEF703FDBDF804000021C90338
:1039000041EA5045C4036148007A00F0030056F8CC
:10391000200005905D48007A00F0040010B1059881
:10392000404205905948007AC0F3C10056F8200083
:1039300006905648007A00F0200010B106984042E8
:1039400006905248007AC0F3811056F82000079084
:103950004E48008900F4807010B1079840420790EB
:103960000598C117A0FB042301FB043100FB0510DF
:10397000810041EA927005900698C117A0FB0423CC
:1039800001FB043100FB0510810041EA92700690B2
:103990000798C117A0FB042301FB043100FB0510AD
:1039A000810041EA927007900598000E8DF808009A
:1039B0000598000C8DF809000598000A8DF80A009A
:1039C0000598C0B28DF80B000698000E8DF80C001B
:1039D0000698000C8DF80D000698000A8DF80E0070
:1039E0000698C0B28DF80F000798000E8DF81000F1
:1039F0000798000C8DF811000798000A8DF8120046
:103A00000798C0B28DF8130002AA0C214FF425705C
:103A1000FFF76EFA08B070BD30B585B004461DA240
:103A200007CA02AB07C3C82C03DD4FF0FF3005B057
:103A300030BDC82090FBF4F0401E85B2280A8DF8F6
:103A40000000E8B28DF801006A46022140F216201B
:103A5000FFF74EFA10B14FF0FF30E8E702AA0C2151
:103A600040F6C120FFF744FA10B14FF0FF30DEE717
:103A7000064884810020DAE7808900084CCD6C007C
:103A80000CC92C003656760026466600A801002098
:103A900009E3CA02FEF2ABC4AAF1DFDFBBAFDFDF8E
:103AA0000146FC4880890880002070472DE9FC47CA
:103AB00006460F4606F0070010B1B7F5C86F03DDE4
:103AC0004FF0FF30BDE8FC87384603F0CAFE814660
:103AD000F14903F0F7FC80466846FEF794FB9DF839
:103AE0000000022806D0042816D0082826D0102866
:103AF00048D135E04FF08D41404603F0B1FC81469E
:103B000003F0DEFE84B2E549404603F0A9FC81469D
:103B100003F0D6FE85B238E04FF08C41404603F00A
:103B20009FFC814603F0CCFE84B2DD49404603F0A1
:103B300097FC814603F0C4FE85B226E04FF08B412E
:103B4000404603F08DFC814603F0BAFE84B2D549AD
:103B5000404603F085FC814603F0B2FE85B214E0D6
:103B60004FF08A41404603F07BFC814603F0A8FEFB
:103B700084B2CD49404603F073FC814603F0A0FEB9
:103B800085B202E04FF0FF309CE700BF20128DF8B5
:103B90000400E0B28DF8050028128DF80600E8B2A6
:103BA0008DF8070006F00100A0B101AA02214FF430
:103BB000EA70FFF79DF910B14FF0FF3082E70DF189
:103BC000060202214FF49270FFF792F910B14FF004
:103BD000FF3077E706F00200A0B101AA02214FF4FE
:103BE000EC70FFF785F910B14FF0FF306AE70DF187
:103BF000060202214FF49470FFF77AF910B14FF0EA
:103C0000FF305FE706F00400A0B101AA02214FF4E3
:103C1000EE70FFF76DF910B14FF0FF3052E70DF184
:103C2000060202214FF49670FFF762F910B14FF0CF
:103C3000FF3047E7002045E738B5044600200090F4
:103C400004F0010020B19DF8000040F03000009029
:103C500004F0020020B19DF8000040F00C0000903C
:103C600004F0040020B19DF8000040F00300009033
:103C70006A4601214FF4A470FFF73AF938BD38B510
:103C80000446012C01DA012402E0042C00DD0424A6
:103C9000601EC0B200906A46012140F24F10FFF74B
:103CA00027F938BD38B50446052094FBF0F085B2FD
:103CB00028128DF80000E8B28DF801006A46022152
:103CC0004FF4EF70FFF714F938BD38B504460520FE
:103CD00094FBF0F085B228128DF80000E8B28DF860
:103CE00001006A4602214FF4ED70FFF701F938BD7B
:103CF000F8B505460E464FF47A7095FBF0F000FBE0
:103D000006F4200E8DF80000200C8DF80100200A2A
:103D10008DF80200E0B28DF803006A4604214FF4EA
:103D2000AE70FFF7E5F8F8BD38B50446052094FB02
:103D3000F0F084B220128DF80000E0B28DF801009E
:103D40006A4602214FF4AD70FFF7D2F838BD38B59E
:103D50000446052094FBF0F084B220128DF8000098
:103D6000E0B28DF801006A4602214FF4AC70FFF713
:103D7000BFF838BD38B5044614B94FF0FF3038BD30
:103D80006A4604214FF45870FFF7EFF810B14FF076
:103D9000FF30F4E79DF8000000069DF8011040EAAE
:103DA00001409DF8021040EA01209DF803100843ED
:103DB00020600020E3E738B50446200E8DF80000AF
:103DC000200C8DF80100200A8DF80200E0B28DF879
:103DD00003006A4604214FF45870FFF789F838BD94
:103DE00038B5044614B94FF0FF3038BD6A46042197
:103DF0004FF47170FFF7B9F810B14FF0FF30F4E7EE
:103E00009DF8000000069DF8011040EA01409DF871
:103E1000021040EA01209DF80310084300EB8000E7
:103E2000800020600020E0E738B504461420B4FB91
:103E3000F0F4200E8DF80000200C8DF80100200A0F
:103E40008DF80200E0B28DF803006A4604214FF4B9
:103E50007170FFF74DF838BD38B5044664B12020C5
:103E60008DF8000028208DF8010030208DF8020028
:103E700038208DF8030004E0A3220421684603F0F3
:103E800078FA6A46042140F69E20FFF731F8FDF7E4
:103E900089FC38BDA80100200000484300004046CE
:103EA0000000C045000040450000C04438B504464D
:103EB00064B1C0208DF80000C2208DF80100C4203C
:103EC0008DF80200C6208DF8030004E08B22042147
:103ED000684603F04EFA6A46042140F69820FFF740
:103EE00007F8FDF75FFC38BD3EB504466CB1FDA197
:103EF000D1E900208968CDE9002002916A460921B4
:103F00004FF49760FEF7F4FF3EBDF9A2D2E900102E
:103F10009268CDE9010200916A4609214FF4976049
:103F2000FEF7E6FFF0E73EB5044602208DF80000FC
:103F3000CA208DF80100E3208DF8020009208DF8D9
:103F400003006A4604216820FEF7D2FFA3208DF803
:103F5000000004F0400048B1C0208DF80100C820E6
:103F60008DF80200C2208DF8030006E0A3208DF832
:103F700001008DF802008DF8030004F4C07048B110
:103F8000C4208DF80400CC208DF80500C6208DF8E3
:103F9000060006E0A3208DF804008DF805008DF8DA
:103FA0000600A3208DF807008DF808008DF80900A1
:103FB0006A460A2140F6A720FEF79AFF04F00300A4
:103FC00018B120208DF8000002E0D8208DF8000004
:103FD0006A46012140F6B620FEF78AFF04F0200071
:103FE00018B10120FFF780FF02E00020FFF77CFFFF
:103FF00004F4C07008B304F4807060B1B2208DF88E
:1040000000008B208DF80100B6208DF802009B2067
:104010008DF803000BE0B0208DF8000080208DF8B3
:104020000100B4208DF8020090208DF803006A464C
:10403000042140F6A220FEF75BFF04F0010020B34C
:10404000F8208DF800006A4601214FF40B60FEF75E
:104050004FFFFA210720FFF729FD0720FFF7ECFDAE
:104060000120FFF70CFE6420FFF71CFE4FF4FA70EE
:10407000FFF72BFEC821A148FFF73AFE2820FFF7E3
:1040800053FE0A20FFF763FE08E0D8208DF80000F9
:104090006A4601214FF40B60FEF72AFF04F002008C
:1040A00018B1D9208DF8000002E0D8208DF800006A
:1040B0006A46012140F23D70FEF71AFF04F0040049
:1040C00018B10120FFF7F2FE02E00020FFF7EEFE3C
:1040D00004F0100018B10120FFF7BEFE02E000203E
:1040E000FFF7BAFE44F0080085494881FDF75AFB06
:1040F00000208349887304F0400018B10846807B93
:10410000801D887304F4C07020B17D48807B801DC1
:104110007B49887304F0140020B17948807B10300B
:104120007749887304F0030020B17548807B001D37
:104130007349887300203EBD01467148408908805C
:10414000002070472DE9F0410446E07800F0C006F9
:10415000E07800F03F05607800F0010098B1EF10C2
:104160002846E91705EB5171C910A5EBC101491C9F
:1041700001F0FF086248006820B1614841460268CA
:104180003846904700BF607800F0080030B15C48C6
:10419000406818B1B0115A4A516888470020BDE8FC
:1041A000F08110B586B0044656A207CA03AB07C318
:1041B00057A207CA8DE80700012C09D0022C0ED1A6
:1041C00003AA0B2140F68220FEF792FE06B010BD36
:1041D0006A460B2140F68220FEF78AFEF6E74FF092
:1041E000FF30F3E72DE9F04F8DB0074688461546BE
:1041F0009946DDE9166B0024002030804049887B19
:104200005A4605A9FEF7D7F918B1601E0DB0BDE8F2
:10421000F08F3B48807A00F01400002861D09DF8B0
:10422000140000069DF8151040EA01409DF8161094
:1042300040EA01209DF81710084328609DF81800F7
:1042400000069DF8191040EA01409DF81A1040EA56
:1042500001209DF81B10084368609DF81C000006B3
:104260009DF81D1040EA01409DF81E1040EA012013
:104270009DF81F100843A8609DF8200000069DF8D7
:10428000211040EA01409DF8221040EA01209DF8EB
:1042900023100843E86004F11000C4B22868001439
:1042A0000190686800140290A86800140390E86800
:1042B0000014049001984043029901FB0100039906
:1042C00001FB0100049901FB010ABAF1706F02DBE6
:1042D000BAF1885F22DDFDF765FA00203080401ECC
:1042E00094E721E0B8AAB38DB4980D355D000000C5
:1042F000B8AAAAAAB088C3C5C700000009E3CA02C9
:10430000A8010020D8B1B9F38BA391B609B4D900A4
:10431000DAB1B9F38BA391B6DAB4DA00B6F90000DA
:1043200040F48070308000BF3448807A00F0400054
:1043300020B305A9601C085C095D40EA012000B2B9
:10434000A8F8000005A9E01C095C05AAA01C105CE7
:1043500041EA002000B2A8F8020005A9601D095C2E
:10436000201D105C41EA002000B2A8F80400A01D46
:10437000C4B2B6F9000040F0080030801F48408900
:1043800000F4C07008B305A9601C085C095D40EA30
:10439000012000B2388005A9E01C095C05AAA01C18
:1043A000105C41EA002000B2788005A9601D095C1C
:1043B000201D105C41EA002000B2B880A01DC4B2EC
:1043C000B6F9000040F0700030800C48807A00F0B0
:1043D000030018B105A90819FFF7B4FE4846FDF718
:1043E0004EFD002012E7014604480160002070479E
:1043F000014602484160002070470000A8010020EB
:10440000002106E00A2100BF0A1EA1F1010399B2B2
:10441000FAD1021EA0F1010398B2F3D17047002136
:1044200007E042F6E06100BF0A1EA1F1010399B264
:10443000FAD1021EA0F1010398B2F2D170470146F1
:1044400001EBC1024FF0E0235A6100229A61012280
:104450001A6100BF4FF0E022106900F001021AB1AA
:1044600000F48032002AF5D000224FF0E0231A61D8
:104470009A617047014642F228324A434FF0E023E6
:104480005A6100229A6101221A6100BF4FF0E022B6
:10449000106900F001021AB100F48032002AF5D050
:1044A00000224FF0E0231A619A61704708B501219C
:1044B0002B4800F098FF0121042001F07FF9012131
:1044C000082001F07BF90121084601F077F94FF44B
:1044D0000040ADF8000003208DF8020010208DF898
:1044E000030069461F4800F0ADFE4FF400411D482F
:1044F00000F055FF0820ADF8000048208DF80300BB
:104500006946194800F09EFE1020ADF800004820D2
:104510008DF803006946144800F094FE08BD10B5FC
:1045200002F075FE10BD10B5FBF76DFE00F0D8F877
:1045300000F01AFB00F0E2FCFCF715FDFEF74AFF65
:104540000A49087000BF094800780028FBD100F034
:104550005EF900F064F900F068FCFFF7A7FF10BDFA
:104560000002300000080140000C0140440100201E
:1045700010B50121042001F021F90121082001F0EA
:104580001DF90121022001F026F910BD08B54020D7
:10459000ADF8000003208DF8020018208DF803000C
:1045A00069465C4800F04EFE8020ADF80000032014
:1045B0008DF8020018208DF803006946554800F078
:1045C00041FE0120ADF8000003208DF80200182004
:1045D0008DF803006946504800F034FE0220ADF823
:1045E000000003208DF8020018208DF803006946B2
:1045F000494800F027FE08BD00B587B000214748B4
:1046000000F0F1FE4FF4E150ADF804000020ADF8E9
:104610000000ADF80600ADF802006946404801F020
:1046200029FD01213E4802F081F86020ADF80C0020
:104630000120ADF80E000020ADF8140003A93848A1
:1046400001F055FD0821364802F0A0F96020ADF8D0
:104650000C000120ADF80E000020ADF8140003A9F5
:104660002F4801F086FD08212D4802F098F96020BE
:10467000ADF80C000120ADF80E000020ADF81400DC
:1046800003A9274801F0C2FD0821254802F094F94A
:104690006020ADF80C000120ADF80E000020ADF850
:1046A000140003A91E4801F0FCFD08211C4802F07B
:1046B0008CF907B000BD08B54FF4407001F0E2F886
:1046C0001D208DF8000001208DF8010000208DF8DC
:1046D000020001208DF80300684601F0D8F808BDFB
:1046E00010B5FFF745FFFFF751FFFFF785FFFFF715
:1046F000E2FF00210A4802F0B1FA0021084802F066
:10470000AFFA0021064802F0ADFA0021044802F099
:10471000ABFA10BD00080140000C014000081A006F
:104720000004004010B50121084601F054F810BD06
:1047300010B50121042001F04EF810BD0EB5012185
:10474000880702F0CDFA40F60F60ADF804001320A0
:10475000ADF800000020ADF80600ADF80200694693
:104760004FF0804001F086FC01221146900701F0D5
:10477000F8FF0121880701F0D9FF0EBD0EB5012118
:10478000BC4802F0ADFA40F60F60ADF8040013200B
:10479000ADF800000020ADF80600ADF80200694653
:1047A000B44801F067FC01221146B24801F0D9FF7C
:1047B0000121B04801F0BAFF0EBD08B54FF44070BA
:1047C00001F060F81C208DF8000003208DF8010036
:1047D00000208DF8020001208DF80300684601F0EA
:1047E00056F808BD08B54FF4407001F04BF81E2094
:1047F0008DF8000002208DF8010000208DF80200E5
:1048000001208DF80300684601F041F808BD10B59D
:10481000FFF788FFFFF792FFFFF7CFFF10BD10B53E
:10482000FFF786FFFFF7AAFFFFF7DCFF10BD10B50B
:1048300091480088401C9049088090480088401C9E
:104840008E4908800846008864280ADB002008801A
:1048500001208B4908708B4800784870084600F0AA
:10486000C1FB8948007868BB88480088401C87499C
:10487000088008460088642818DB002008808448E7
:104880000088401C8249088082480078824908607C
:10489000804800788149C1F8A0017E480078C04373
:1048A0007C49087001207C492831086078480088DC
:1048B000A52807DB00207649088001207849087088
:1048C000714908706C480088B0F5967F38DB00208D
:1048D0006949088000F0ADFA72480078F8B972486A
:1048E000007802280CD101206B4908606B49C1F89F
:1048F000A0010846D0F8BC01C043C1F8BC010EE0DD
:104900006148007801280AD1634908606349C1F809
:10491000BC010846D0F8A001C043C1F8A00161481D
:10492000007801280CD15C480068C0435B49C1F89D
:104930009401012058490C3108605849C1F8BC0164
:1049400059480078022832D15848007820B9584890
:104950000068401C564908605448007820B1002087
:10496000534908604F49087051480068B0F5FA7F14
:1049700005DB00204E49086001204A49087049487B
:104980000078032813D14B480088401C494908800F
:104990000846008896280ADB0020088046480078F0
:1049A0001E2804DD44480078401E43490870012158
:1049B000880702F095F910BD10B5FBF72DFC3848BB
:1049C000007801280AD10020354908703B4800686A
:1049D0003B490860394800683A4908603248007825
:1049E000022841D13848007868BB334800781E2837
:1049F00001DBFCF7D5F8304800781E2823DA2E4971
:104A00000978C1EB011101EB41000121FBF719FC11
:104A100029490978C1EB011101EB41000221FBF7A3
:104A200010FC25490978C1EB011101EB410003217C
:104A3000FBF707FC20490978C1EB011101EB4100AC
:104A40000421FBF7FEFB2048007801280CD11F4809
:104A50000088401C1D49088008460088642803DB44
:104A600000200880184908700121024802F038F936
:104A700010BD0000000800404C0100204E01002045
:104A800073010020680100205E0100205A0100200F
:104A90005C0100205F0100209401214200002142BE
:104AA0007701002054010020750100206D010020D5
:104AB00050010020580100201E0000200C000020A2
:104AC00098000020A400002076010020560100205C
:104AD00010B50121042000F071FE0121480200F010
:104AE0006DFE4FF4004000F0CDFD10BD08B5102064
:104AF000ADF8000000208DF803006946804800F002
:104B0000A1FB08BD00B585B07E4800F029FF00205C
:104B100000908DF804008DF805004FF4602002909D
:104B20000020039002208DF810006946754800F0BF
:104B30003EFF002001F0F8F80121724800F063FF09
:104B4000704800F082FF00BF6E4800F083FF00282D
:104B5000FAD16C4800F088FF00BF6A4800F089FF76
:104B60000028FAD105B000BD10B5FFF7B1FFFFF77F
:104B7000BDFFFFF7C7FF10BD10B504460723012294
:104B80002146604800F0ABFF01215E4800F07BFF4A
:104B900000BF02215B4801F0E7F80028F9D059482E
:104BA00001F004F810BD2DE9F04107460C46002540
:104BB000002608E03846FFF7DFFF05440520FFF731
:104BC00059FC701CC6B2A642F4DBB5FBF4F080B20F
:104BD000BDE8F0812DE9F0474FF0000A0A210420DA
:104BE000FFF7E1FF8246504602F03BFE804602F0AE
:104BF000B3FE06464FF06632434B02F048FD0446D2
:104C000002F0BDFE414908600846006802F0A4FEBB
:104C100004463F4A3F4B02F03AFD064602F0AFFE23
:104C20003A4908600846006802F096FE04462246AB
:104C30000B463948394902F09CFD064602F09FFEBA
:104C4000374908603148006802F086FE80464FF020
:104C50006632344B02F015FD0646334A334B02F000
:104C600016FD044602F05FFE3149087008460078E0
:104C7000002801DC002008702D480078642802DB41
:104C800064202B490870BDE8F0872DE9FE4F002015
:104C900002900A211020FFF786FF0290029802F08E
:104CA000E0FD804602F058FE06464FF06632164B95
:104CB00002F0EDFC044602F062FE1E490860084660
:104CC000006802F049FE80461B4A1C4B02F0DCFCE7
:104CD0001B4A1C4BCDE9000102F04BFD06460022A9
:104CE000194B02F02DFC0446134A5242174B02F0B6
:104CF00040FD824602F017FE15490870BDE8FE8FA0
:104D0000000801400024014066664A3F640100201B
:104D10002BF697DD93870F409A99999999991040AE
:104D20005C000020666606404A682FA1BD845240A0
:104D30006801002060010020E17A14AE47E1F63FEF
:104D400022FDF675E09C713F00003940B81EF53F2A
:104D50006901002010B50121102000F02FFD012174
:104D6000084600F02BFD10BD08B54020ADF800004E
:104D700048208DF8030003208DF802006946214881
:104D800000F060FA08BD1CB5402001F096F806213D
:104D9000022000F06DFB4020009000208DF8040000
:104DA0000C208DF8050001208DF80600684601F002
:104DB0000DF81CBD08B54FF4A06000F063FD17208E
:104DC0008DF8000004208DF8010000208DF802000D
:104DD00001208DF80300684600F059FD08BD10B5AC
:104DE000FFF7B8FFFFF7C0FFFFF7CDFFFFF7E2FFC8
:104DF00010BD10B54021034800F0B7FA402001F083
:104E00005CF810BD0010014010B545F2555002F09D
:104E10006FF9042002F06FF94FF4966002F06EF91A
:104E200002F06FF902F072F910BD10B5FFF7ECFF58
:104E300010BD10B502F065F910BD000010B50121DC
:104E4000042000F0BBFC0121880300F0B7FC012125
:104E5000084600F0B3FC10BD08B54FF40070ADF883
:104E6000000003208DF8020018208DF80300694629
:104E7000AF4800F0E7F94FF48060ADF8000004207F
:104E80008DF803006946AA4800F0DCF908BD1FB59B
:104E90004FF4165000900020ADF80400ADF8060065
:104EA000ADF80800ADF80C000C20ADF80A0069461A
:104EB000A04801F05CFF012240F225519D4801F01D
:104EC000EEFF01219B4801F0DEFF4021994802F0EE
:104ED000C2F81FBD08B54FF4407000F0D3FC252088
:104EE0008DF8000000208DF801008DF802000120EF
:104EF0008DF80300684600F0CAFC08BD10B5FFF746
:104F00009DFFFFF7A9FFFFF7C2FFFFF7E3FF10BD0B
:104F100010B540F22551874802F0A6F810B30120E1
:104F200085490870834802F01FF8844908700846D4
:104F300000788349834A1278885482480078401C5C
:104F400080490870084600780D2804DD00200870AC
:104F500001207D49087000BF8021764802F06EF87C
:104F60000028F9D010BD002036E07549095CFF2902
:104F700030D1734A411D525C714B011D595C0A448A
:104F8000C11C595C0A44811C595C0A44411C595C8F
:104F900011441A46125C1144CAB2811D595C8A42FE
:104FA00018D11A46411C515C684A11701A46811C7E
:104FB000515C674A11701A46C11C515C654A1170F8
:104FC0001A46011D515C644A11701A46411D515C1C
:104FD000624A1170411CC8B20E28C6DB0021594A32
:104FE0001170704738B50546FE208DF8000028780E
:104FF0008DF8010068788DF802002878801E6978A5
:105000000844C0B28DF8030000240DE01DF8041020
:10501000484801F0A5FF00BF8021464802F00EF885
:105020000028F9D0601CC4B2042CEFDB00240DE092
:105030001DF804103F4801F093FF00BF80213D4858
:1050400001F0FCFF0028F9D0601CC4B2042CEFDB97
:1050500038BD10B53C480078012804D100203A49F9
:105060000870FFF780FF39480078012823D13848BD
:1050700000783B49087008460078022802D10120D8
:10508000384908700220384908703548007848705F
:105090000846FFF7A7FF3448FFF7A4FF00202B497D
:1050A00008702B4908702B4908702B4908702B4950
:1050B0000870244908702548007802281FD12B4821
:1050C000007818B9224800782949087021480078EA
:1050D0002849087020480078274908701F48007840
:1050E00026490870002019490870194908701949A3
:1050F0000870194908701949087012490870134856
:105100000078032813D11A480078322802DB0120E6
:105110001B49087000200D4908700D4908700D49A1
:1051200008700D4908700D4908700649087010BDD7
:1051300000080140003801406A0100206B01002096
:10514000B80100206C0100206D0100206E010020DC
:105150006F01002070010020710100207201002009
:105160007501002077010020730100205401002008
:105170001E0000201F000020200000202100002031
:105180007601002010B50446CC48844208D10121A4
:10519000042000F02DFB0021042000F029FB46E054
:1051A000C748844208D10121082000F021FB0021DA
:1051B000082000F01DFB3AE0C248844208D10121DA
:1051C000102000F015FB0021102000F011FB2EE054
:1051D000BD48844208D10121202000F009FB0021B4
:1051E000202000F005FB22E0B848844208D10121CC
:1051F000402000F0FDFA0021402000F0F9FA16E00E
:10520000B348844208D10121802000F0F1FA002146
:10521000802000F0EDFA0AE0AE48844207D1012177
:10522000801500F0E5FA0021A01500F0E1FA10BDAC
:1052300010B50121084600F0DBFA0021012000F042
:10524000D7FA10BD2DE9F0410246002500260020C6
:1052500000230024002791F803C00CF00F0591F8FB
:1052600003C00CF0100CBCF1000F03D091F802C089
:105270004CEA050591F800C0BCF1000F31D014686C
:1052800000202BE04FF0010C0CFA00F3B1F800C045
:105290000CEA03069E4220D183004FF00F0C0CFA5B
:1052A00003F7BC4305FA03FC4CEA040491F803C07D
:1052B000BCF1280F06D14FF0010C0CFA00FCC2F82B
:1052C00014C00AE091F803C0BCF1480F05D14FF0BB
:1052D000010C0CFA00FCC2F810C0401C0828D1D305
:1052E0001460B1F800C0BCF1FF0F34DD5468002039
:1052F0002EE000F1080C4FF0010808FA0CF3B1F8A9
:1053000000C00CEA03069E4221D183004FF00F0C2F
:105310000CFA03F7BC4305FA03FC4CEA040491F8C9
:1053200003C0BCF1280F05D100F1080C08FA0CF8F5
:10533000C2F8148091F803C0BCF1480F07D100F106
:10534000080C4FF0010808FA0CF8C2F81080401C55
:105350000828CED35460BDE8F0814FF6FF7101807C
:10536000022181700421C1707047024600209368B9
:105370000B400BB1012000E0002070470146886817
:1053800080B2704702460020D3680B400BB1012069
:1053900000E0002070470146C86880B27047016194
:1053A0007047416170470AB1016100E04161704797
:1053B000C16070474FF480320A438261816182612B
:1053C00082698269704702460020434B18684FF695
:1053D0008073184040EA021008433F4B1860704742
:1053E0003E49C8617047F0B50A46002300240021F9
:1053F000002500F00046B6F1004F02D1364EF169AB
:1054000001E0354E7168C0F3034583B200F44016E5
:10541000B6F5401F08D121F070612F4E766826F056
:1054200070662D4F7E6012E000F48016B6F5801F86
:1054300006D1032606FA05F4A14341F0706106E0A7
:10544000460D360103FA06F6B14341F0706122B110
:10545000460D360103FA06F6314300F00046B6F178
:10546000004F02D11C4EF16101E01B4E7160F0BD96
:1054700030B500228B071C0F0F2303FA04F2164BE2
:1054800008338C1053F824309343134C08348D1098
:1054900044F8253023468C1053F824308C07240F11
:1054A00000FA04F423430C4C08348D1044F82530E2
:1054B00030BD0A49DC310860704700000008014037
:1054C000000C014000100140001401400018014090
:1054D000001C01400020014000000140000020426B
:1054E000DF48006840F00100DD4908600846406878
:1054F000DC490840DA49486008460068DA49084053
:10550000D74908600846006820F4802008600846F3
:10551000406820F4FE0048604FF41F008860704728
:10552000CF49096821F48031CD4A116011460968DC
:1055300021F480211160B0F5803F03D0B0F5802FB9
:105540000ED106E0C649096841F48031C44A1160B1
:1055500007E0C349096841F4A021C14A116000E095
:1055600000BF00BF704710B5014600220023002095
:105570004A11012A02D1BA4C236806E0022A02D15C
:10558000B74C236A01E0B64C636A01F01F020124A4
:1055900094401C400CB1012000E0002010BD38B543
:1055A000002000900024002500BF3120FFF7DBFF22
:1055B00005460098401C00900098B0F5A06F01D0FF
:1055C000002DF2D03120FFF7CEFF08B1012400E01A
:1055D0000024204638BD01460020A14A106820F072
:1055E000F80040EAC10010607047A04908607047A9
:1055F000024600209A4B586820F47C1042EA0103CE
:105600001843974B586070479849086670470146A1
:105610000020934A506820F0030008435060704710
:105620008F48406800F00C007047014600208C4A0B
:10563000506820F0F0000843506070470146002099
:10564000874A506820F4E060084350607047014684
:105650000020834A506820F4605040EAC100506046
:10566000704729B17E4A527A02437D4B5A7204E058
:105670007B4A527A82437A4B5A7270477B49D831BF
:105680000860704701460020754A506820F4404089
:105690000843506070470021714A20321170704AEF
:1056A00082F82010012802D004280AD104E0012148
:1056B0006B4A2032117005E00521694A20321170D1
:1056C00000E000BF00BF7047694908607047644947
:1056D000096A0143624A11627047654944390860AA
:1056E000704730B500210022002400235C4D6D6816
:1056F00005F00C0121B1042905D0082923D105E0CA
:105700005C4D056022E05B4D05601FE0544D6D6807
:1057100005F47012524D6D6805F48034022505EBD6
:1057200092421CB9544D554305600BE04C4D6D68D9
:1057300005F400351DB1504D5543056002E04D4D57
:105740005543056002E04B4D056000BF00BF444D6E
:105750006D6805F0F0010909484D6B5C0568DD4096
:1057600045603F4D6D6805F4E061090A434D6B5C8F
:105770004568DD4085603A4D6D6805F46051C90AA1
:105780003E4D6B5C4568DD40C560354D6D6805F488
:105790004041890B3A4D6B5CC568B5FBF3F505617B
:1057A00030BD29B12E4A526902432D4B5A6104E0A3
:1057B0002B4A526982432A4B5A61704729B1284AC1
:1057C00092690243264B9A6104E0254A926982431A
:1057D000234B9A61704729B1214AD2690243204B79
:1057E000DA6104E01E4AD26982431D4BDA617047D8
:1057F00029B11B4AD2680243194BDA6004E0184A07
:10580000D2688243164BDA60704729B1144A126994
:105810000243134B1A6104E0114A12698243104B90
:105820001A61704712494039086070470F49C864CF
:1058300070470B49C87170470948406A40F0807052
:1058400007494862704701460020054A92680A40AD
:105850000AB1012000E000207047014988727047BA
:10586000001002400000FFF8FFFFF6FE0000424279
:105870008004424200127A0000093D0078010020B5
:105880008801002031490143314A1160704770B5E9
:10589000002100230F22C47804B32D4C246804F4A3
:1058A000E064C4F5E064210AC1F10403CA4044780D
:1058B00004FA03F18478144021430901254C067849
:1058C000A155047804F01F050124AC4005786D1142
:1058D000AD0005F1E025C5F8004109E0047804F0C9
:1058E0001F050124AC401C4D0678761145F8264072
:1058F00070BD1A4A0A400243154B1B1F1A607047BD
:1059000039B1134A121D12680243114B1B1D1A6054
:1059100006E00F4A121D126882430D4B1B1D1A60D0
:105920007047042808D14FF0E021096941F00401D3
:105930004FF0E022116107E04FF0E021096921F00A
:1059400004014FF0E0221161704700000000FA05E9
:105950000CED00E000E400E080E100E080FFFF1FCC
:1059600010B50446FA48844208D101214015FFF7DA
:105970003FFF00216015FFF73BFF17E0F548844229
:1059800008D101210015FFF733FF00212015FFF793
:105990002FFF0BE0F048844208D10121C803FFF734
:1059A00027FF00214FF40040FFF722FF10BD30B564
:1059B0000246002000235068E84C20400D790C6816
:1059C00044EA0524204350609068E54C2040D1E92A
:1059D00002542C434D7944EA450420439060D06A38
:1059E00020F470000C7C641EE4B2234340EA0350B0
:1059F000D06230BD00210160017141718160C160E0
:105A000001210174704721B1826842F00102826075
:105A100003E0826822F001028260704721B182684F
:105A200042F48072826003E0826822F480728260B5
:105A3000704710B50023CBB21AB144681C434460D0
:105A400002E044689C43446010BD816841F0080155
:105A500081607047014600208A6802F008020AB19E
:105A6000012000E000207047816841F0040181605E
:105A70007047014600208A6802F004020AB1012042
:105A800000E00020704721B1826842F4A0028260E9
:105A900003E0826822F4A002826070470146002081
:105AA0008A6802F480020AB1012000E000207047F9
:105AB00010B50A4600210023416821F46041531EBD
:105AC00041EA4331416010BD21B1426842F40062B5
:105AD000426003E0426822F4006242607047F0B521
