:020000040800F2
:10000000580B0020CD0100089D0300089F03000845
:10001000A3030008A7030008AB03000800000000CA
:10002000000000000000000000000000AF03000816
:10003000B103000800000000B3030008B503000886
:10004000E7010008E7010008E7010008E7010008F0
:10005000E7010008E7010008E7010008E7010008E0
:10006000E7010008E317000847180008E701000847
:10007000E7010008E7010008E7010008E7010008C0
:10008000E7010008E7010008E7010008E7010008B0
:10009000E7010008E7010008E70100086718000809
:1000A000E7010008E7010008E7010008E701000890
:1000B000B7040008C1050008E7010008E7010008CF
:1000C000E7010008E7010008E7010008E701000870
:1000D000E7010008151F0008E7010008E701000814
:1000E000E7010008E7010008E7010008E701000850
:1000F000E7010008E7010008E7010008E701000840
:10010000E7010008E7010008E7010008E70100082F
:10011000E7010008E7010008E7010008E70100081F
:10012000E7010008E7010008E7010008E70100080F
:1001300000F002F800F03AF80AA090E8000C8244BF
:100140008344AAF10107DA4501D100F02FF8AFF29C
:10015000090EBAE80F0013F0010F18BFFB1A43F0A5
:1001600001031847746E0000946E0000103A24BF1B
:1001700078C878C1FAD8520724BF30C830C144BF0C
:1001800004680C607047000000230024002500264E
:10019000103A28BF78C1FBD8520728BF30C148BFEA
:1001A0000B6070471FB51FBD10B510BD04F09DF862
:1001B0001146FFF7F7FF00F029F804F0BBF803B48D
:1001C000FFF7F2FF03BC04F0C3F8000009488047C2
:1001D00009480047FEE7FEE7FEE7FEE7FEE7FEE729
:1001E000FEE7FEE7FEE7FEE704480549054A064B41
:1001F00070470000E3410008310100085805002065
:10020000580B0020580700205807002000F098F8ED
:10021000002000F0DFFE4FF47A7000F041F801207A
:1002200000F0D8FE01E001F051F9FCE7002106E002
:100230000A2100BF0A1EA1F1010399B2FAD1021EE0
:10024000A0F1010398B2F3D17047002107E042F614
:10025000E06100BF0A1EA1F1010399B2FAD1021EAA
:10026000A0F1010398B2F2D17047014601EBC1023F
:100270004FF0E0235A6100229A6101221A6100BF07
:100280004FF0E022106900F001021AB100F4803250
:10029000002AF5D000224FF0E0231A619A617047DE
:1002A000014642F228324A434FF0E0235A610022CD
:1002B0009A6101221A6100BF4FF0E022106900F03C
:1002C00001021AB100F48032002AF5D000224FF06A
:1002D000E0231A619A61704708B501212C4802F0A9
:1002E0006CF80121042002F053FA0121082002F0E9
:1002F0004FFA0121084602F04BFA4FF40040ADF8E6
:10030000000003208DF8020010208DF803006946DC
:10031000204801F081FF0820ADF8000048208DF84A
:10032000030069461C4801F077FF1020ADF800007B
:1003300048208DF803006946174801F06DFF08BD9D
:1003400010B503F04EFFFFF7C7FF00F0A1FD00203E
:1003500000F0F2F9002000F0FDF900F050FA01F091
:10036000C7FE0021012001F0C9FE0021022001F09A
:10037000C5FE0021032001F0C1FE00F090F801F05D
:10038000BFFD01F050F901F033FB00F094F910BD0E
:100390000002300000080140000C0140704700BF1F
:1003A000FEE700BFFEE700BFFEE700BFFEE77047C5
:1003B000704770477047000010B50121084602F0F1
:1003C000F4F90121022002F0F0F910BD0EB501216F
:1003D000880703F073FB40F60F60ADF804001320AC
:1003E000ADF800000020ADF80600ADF80200694647
:1003F0004FF0804002F02CFD01221146900703F0DF
:100400009EF80121880703F07FF80EBD08B54FF470
:10041000407003F0E5FB1C208DF8000003208DF8F0
:10042000010000208DF8020001208DF803006846CD
:1004300003F0DBFB08BD0EB50121794803F03EFB5C
:1004400040F60F60ADF804001320ADF80000002066
:10045000ADF80600ADF802006946714802F0F8FCFC
:10046000012211466E4803F06AF801216C4803F03E
:100470004BF80EBD08B54FF4407003F0B1FB1D20E2
:100480008DF8000002208DF8010000208DF8020098
:1004900001208DF80300684603F0A7FB08BD10B5E6
:1004A000FFF78AFFFFF792FFFFF7C5FFFFF7AEFFE9
:1004B000FFF7E0FF10BD08B55A480088401C5949B5
:1004C000088059480068401C574908600846006881
:1004D000B0F5967F03DB0020086000F0F0F8534889
:1004E000007801281ED15248007820B95148008870
:1004F000401C504908804E48007840B100204D49CA
:1005000008804D4908700021012001F0F7FD49489D
:100510000088B0F5FA7F05DB0020464908800120FD
:10052000454908703F480088C82844DB00203D4901
:10053000088041480078012811D140480078C04324
:100540003E49087008460178012001F0D7FD0120DE
:1005500008233BA2342100901E2000F0EAFA3D4817
:100560000078012811D13C480078C0433A4908700E
:1005700008460178022001F0C1FD0120082337A2BE
:10058000342100901E2000F0D4FA38480078012869
:1005900011D137480078C0433549087008460178C2
:1005A000032001F0ABFD0120082332A2342100908A
:1005B0001E2000F0BEFA0121880703F07FFA08BD73
:1005C00010B530480088401C2E49088001F03AFDE3
:1005D0002C48008864281DDB00202A4908802A480E
:1005E0000078012811D10020274908702748007899
:1005F00032280ADB032026490870002048708870E2
:10060000C8700871084601F0D7FC1F48007808B987
:1006100000F034FF0121024803F050FA10BD000041
:1006200000040040000000200C000020100000200A
:100630003C000020040000201300002006000020E1
:100640004F7574206F6620636F6E74726F6C21201B
:10065000000000001400002007000020506C616EB4
:100660006520426174206C6F772120001500002006
:100670000800002052656D6F746520426174206C23
:100680006F772100020000201D00002034000020B0
:100690004700002010B545F2555003F013FD04202B
:1006A00003F013FD4FF4966003F012FD03F013FD09
:1006B00003F016FD10BD10B5FFF7ECFF10BD10B52F
:1006C00003F009FD10BD000070B504460E4626B1CA
:1006D0004021FA4801F04DFE03E04021F74801F0C7
:1006E0004AFE2021F54801F046FE002519E04FF4AE
:1006F0008071F24801F03FFE04F0800020B18021BB
:10070000EE4801F036FE03E08021EC4801F033FEB4
:100710004FF48071E94801F02CFE6006040E681C5D
:10072000C5B2082DE3DB2021E44801F022FE402180
:10073000E24801F01EFE70BD10B504461CB9002150
:10074000A620FFF7C1FF012C03D10021A720FFF74E
:10075000BBFF10BD10B504463CB90021C820FFF70F
:10076000B3FF0021A120FFF7AFFF012C07D100212B
:10077000C020FFF7A9FF0021A020FFF7A5FF10BDB3
:1007800010B500218D20FFF79FFF00211420FFF7F7
:100790009BFF0021AF20FFF797FF10BD10B5002190
:1007A0008D20FFF791FF00211020FFF78DFF002122
:1007B000AE20FFF789FF10BD70B500241CE004F1E6
:1007C000B001C8B20021FFF77FFF00210220FFF730
:1007D0007BFF00211020FFF777FF002508E0B849D4
:1007E00001EBC501085D0121FFF76EFF681CC5B272
:1007F000802DF4DB601CC4B2082CE0DB70BD70B54A
:1008000000240CE0002506E00020AD4901EBC50105
:100810000855681CC5B2802DF6DB601CC4B2082CDC
:10082000F0DBFFF7C9FF70BDF0B514460B46CF17DC
:1008300001EB5777C7F3C702CF1701EB5777FF10CC
:10084000A1EBC707FEB20123B340DDB24CB19C4B14
:1008500003EBC0039B5C2B43994F07EBC007BB54D2
:100860001AE0974B03EBC0039B5CDB43944F07EB11
:10087000C007BB54924B03EBC0039B5C2B43904FD0
:1008800007EBC007BB548E4B03EBC0039B5CDB4301
:100890008B4F07EBC007BB54F0BD2DE9FF4F84B071
:1008A00081468A460020029083460698A0EB090400
:1008B0000798A0EB0A06CDF80490CDF800A0002C14
:1008C00001DD012705E00CB9002702E04FF0FF37FA
:1008D0006442002E02DD4FF0010806E016B94FF029
:1008E000000802E04FF0FF386642B44201DD2546C1
:1008F00000E03546002003901EE0009AD1B2019A34
:10090000D0B2119AFFF790FF029820440290B344AE
:100910000298A84205DD0298401B029001983844D5
:100920000190AB4504DDABEB050B00984044009013
:100930000398401C80B20390691C03988842DCDB5A
:1009400008B0BDE8F08F2DE9F04306460F4690460B
:100950000025444643E03A1BD1B27219D0B20122BD
:10096000FFF762FF3A1BD1B2721BD0B20122FFF730
:100970005BFF3A19D1B2721BD0B20122FFF754FFCC
:100980003A19D1B27219D0B20122FFF74DFF7A198C
:10099000D1B23219D0B20122FFF746FF7A1BD1B291
:1009A0003219D0B20122FFF73FFF7A1BD1B2321BBE
:1009B000D0B20122FFF738FF7A19D1B2321BD0B280
:1009C0000122FFF731FF6D1C05FB05F004FB04005D
:1009D00008FB1809B9F1000F01DD641E6D1E6000EF
:1009E000604308FB08F18842B5DABDE8F0832DE9E1
:1009F000FE4F0746884692461C460197CDF8008078
:100A0000082C02D14FF006091FE02046E31704EB43
:100A10005373DB1021464FEAE47C04EB5C7C4FEA25
:100A2000EC0CA4EBCC0CBCF1000F02D04FF0010C8D
:100A300001E04FF0000C6344224604EBD27C4FEA05
:100A40006C0C03FB0CF303F0FF09AAF12000C6B203
:100A500000256AE0082C07D106EB4600194901EB96
:100A6000400010F805B01DE00C2C07D106EB460045
:100A7000154901EB800010F805B013E0102C05D1EA
:100A8000124800EB061010F805B00BE0182C07D147
:100A900006EBC6000E4901EB800010F805B001E03E
:100AA000BDE8FE8F0020029028E00BF0010088B125
:100AB000414638460C9AFFF7B7FE15E000080140A2
:100AC00074000020C64F0008EE510008625600086E
:100AD000525C00080C9808B9012000E00020024692
:100AE00041463846FFF7A0FE4FEA6B0B08F10100C4
:100AF00000F0FF080298401CC0B20290029808283B
:100B0000D3DB781CC7B2082C0BD004EBD4714A108D
:100B10000199791A8A4204D1019F00980830C0B225
:100B20000090DDF80080681CC5B24D4592DB00BF27
:100B3000B6E72DE9F84106460F4614461D46DDF896
:100B40001C8013E0CDF8008022782B4639463046D1
:100B5000FFF74DFF082D02D1B01DC6B205E02846B3
:100B600005EBD07106EB6101CEB2641C2078202821
:100B700002DB20787E28E5DDBDE8F88110B502466D
:100B8000012000E050430B1EA1F10104E1B2F9D1B4
:100B900010BD2DE9FF4F82B0064691461F46DDE9A4
:100BA0000F4A4FF0000B082C01D14FF0020B00252B
:100BB00030E0781B401EC1B20A20FFF7DFFFB9FB0F
:100BC000F0F00A21B0FBF1F201FB1208B8F1000FBE
:100BD0000ED104EBD4710BEB610101FB0561C8B2CE
:100BE00023463022CDE900A40399FFF700FF0FE070
:100BF00004EBD4710BEB610101FB0561C8B208F194
:100C00003001CAB22346CDE900A40399FFF7EFFEF5
:100C1000681CC5B2BD42CCDB06B0BDE8F08F2DE943
:100C2000FC4F0746884616461C46BB46CDF8048056
:100C30002046E21704EB5272D2102146E31704EB70
:100C40005373DB10A4EBC3030BB1012300E00023BB
:100C50001A44624392B20092002555E0102C05D14F
:100C6000D54800EB461010F805A01BE0182C07D162
:100C700006EBC600D14901EBC00010F805A011E059
:100C8000202C05D1CE4800EBC61010F805A009E0D5
:100C9000402C05D1CB4800EB462010F805A001E020
:100CA000BDE8FC8F4FF000091CE00AF0010028B1FC
:100CB000414638460B9AFFF7B7FD09E00B9808B993
:100CC000012000E00020024641463846FFF7ACFD17
:100CD0004FEA6A0A08F1010000F0FF0809F101007B
:100CE00000F0FF09B9F1080FDFDB781CC7B2A7EBF2
:100CF0000B00A04204D15F4601980830C0B20190B9
:100D0000DDF80480681C85B200988542A6DB00BF30
:100D1000C6E708B5804689469246002600274BE084
:100D20004FB91023324618218020CDF800A0FFF7DC
:100D300076FF701CC6B2464522D14FF0000B1AE078
:100D4000012410E000250AE09F4800EBC400415D4B
:100D5000601E9D4A02EBC0004155681CC5B2082DBB
:100D6000F2DB601CC4B2902CECDBFFF725FD0BF12D
:100D7000010000F0FF0B4FEA09105845E0DC0026A7
:100D8000781CC7B2102F00D10027012410E00025E5
:100D90000AE08D4800EBC400415D601E8A4A02EB08
:100DA000C0004155681CC5B2082DF2DB601CC4B2FE
:100DB000902CECDBFFF700FDB2E72DE9FF4F054675
:100DC0000E4617461C46DDF838904FF0000A009595
:100DD000B3462046E21704EB5272D2102146E317C5
:100DE00004EB5373DB10A4EBC3030BB1012300E04E
:100DF00000231A44D4B24FF0000845E000200390CD
:100E00003BE00D9810F80A0002900AF101001FFA69
:100E100080FA002001901DE0029800F0010028B146
:100E20004A4631462846FFF7FFFC0AE0B9F1000FB9
:100E300001D1012000E00020024631462846FFF79C
:100E4000F3FC029840100290701CC6B20198401C3E
:100E5000C0B2019001980828DEDB681CC5B200987A
:100E6000281AB84204D1009D0BF1080000F0FF0BD6
:100E70005E460398401CC0B203900398B842C0DBA2
:100E800008F1010000F0FF08A045B7DBBDE8FF8FC7
:100E900008B50121052001F07BFC01214B4801F040
:100EA0008CFA48F2E010ADF8000010208DF8030035
:100EB00003208DF802006946454801F0ADF948F27B
:100EC000E011434801F055FA4FF40041404801F069
:100ED00052FAC820FFF7E4F94FF400413C4801F012
:100EE00048FA0021AE20FFF7EFFB00210220FFF7B8
:100EF000EBFB00211020FFF7E7FB00214020FFF76C
:100F0000E3FB0021B020FFF7DFFB00218120FFF78A
:100F1000DBFB0021CF20FFF7D7FB0021A120FFF74B
:100F2000D3FB0021A620FFF7CFFB0021A820FFF76D
:100F3000CBFB00213F20FFF7C7FB0021AD20FFF7CF
:100F4000C3FB00218B20FFF7BFFB00213320FFF7FD
:100F5000BBFB0021C820FFF7B7FB0021D320FFF720
:100F6000B3FB00210846FFF7AFFB0021D520FFF7B8
:100F7000ABFB00218020FFF7A7FB0021D920FFF762
:100F8000A3FB00211F20FFF79FFB0021DA20FFF7C2
:100F90009BFB00211220FFF797FB0021DB20FFF7CE
:100FA00093FB00214020FFF78FFBFFF728FC002177
:100FB000AF20FFF789FB08BDAE6900080E6B000883
:100FC000566B0008D66B0008740000200002300049
:100FD000000801401CB504466CB9FFF710FC012065
:100FE000FE4940231A46CDE9001000211F20FFF7DB
:100FF000E4FEFFF7E1FB012C3BD1FFF700FC0120F1
:101000000823F7A2022100900020FFF792FD0120A3
:101010000823F6A20C2100900020FFF78AFD012092
:101020000823F5A2162100900020FFF782FD012081
:101030000823F3A2202100900020FFF77AFD012071
:101040000823F1A22A2100900020FFF772FD012061
:101050000823EFA2342100900020FFF76AFD012051
:101060000823EDA2342100901E20FFF762FDFFF758
:10107000A3FB1CBD1CB5044600F00CFEEC48007838
:101080000A2812DA012008210346CDE90010E848B9
:10109000027802215020FFF77CFD01200823E2A204
:1010A000022100905620FFF744FDE14800780A280D
:1010B00016DBDF480078642812DA012008210223B9
:1010C000CDE90010DA48027819465020FFF761FD9B
:1010D00001200823D7A2022100905D20FFF729FDFF
:1010E000D3480078642812DB012008210323CDE9CE
:1010F0000010CF48027802215020FFF74AFD01205E
:101100000823CDA2022100906620FFF712FDCB48F4
:1011100000780A2812DA012008210346CDE90010E0
:10112000C64802780C215020FFF733FD0120082328
:10113000BDA20C2100905620FFF7FBFCBF480078B1
:101140000A2816DBBD480078642812DA012008213D
:101150000223CDE90010B94802780C215020FFF796
:1011600018FD01200823B3A20C2100905D20FFF799
:10117000E0FCB2480078642812DB01200821032338
:10118000CDE90010AD4802780C215020FFF701FD99
:1011900001200823A8A20C2100906620FFF7C9FCBB
:1011A000BCB901200823A6A2162100905020FFF709
:1011B000C0FC01200823A2A2202100905020FFF7AC
:1011C000B8FC012008239EA22A2100905020FFF79E
:1011D000B0FC012C7ED19D4800780A2812DA01204B
:1011E00008210346CDE900109848027816215020C6
:1011F000FFF7CFFC0120082395A21621009056206E
:10120000FFF797FC914800780A2816DB8F48007892
:10121000642812DA012008210223CDE900108B484E
:10122000027816215020FFF7B4FC012008238AA27F
:10123000162100905D20FFF77CFC8448007864282C
:1012400012DB012008210323CDE900107F4802783A
:1012500016215020FFF79DFC0120082372A21621C1
:1012600000906620FFF765FC7D4800780A2812DAB6
:10127000012008210346CDE9001079480278202199
:101280005020FFF786FC0120082371A22021009046
:101290005620FFF74EFC724800780A2816DB70488B
:1012A0000078642812DA012008210223CDE9001019
:1012B0006B48027820215020FFF76BFC01200823A7
:1012C00065A2202100905D20FFF733FC6448007880
:1012D000642800E05CE012DB012008210323CDE953
:1012E00000105F48027820215020FFF752FC0120B7
:1012F00008234DA2202100906620FFF71AFC5948D0
:1013000000780A2812DA012008210346CDE90010EE
:10131000544802782A215020FFF73BFC0120082383
:101320004BA22A2100905620FFF703FC4D4800787D
:101330000A2816DB4B480078642812DA01200821BD
:101340000223CDE90010474802782A215020FFF7F8
:1013500020FC0120082340A22A2100905D20FFF7F5
:10136000E8FB40480078642812DB012008210323B1
:10137000CDE900103B4802782A215020FFF709FCF4
:101380000120082328A22A2100906620FFF7D1FB24
:10139000FFF712FA1CBD10B500F07CFC2448007861
:1013A000142802DC012030490870214800781428F4
:1013B00006DD00202C4908700021022000F09EFE6E
:1013C0001E480078142802DC0120284908701B48B8
:1013D0000078142851DD0020244949E0D66D00082A
:1013E000506C616E652D4261743A000052656D6FFC
:1013F00074652D4261743A004F696C3A0000000038
:1014000050697463683A0000526F6C6C3A000000D7
:10141000546970733A000000506C65617365207503
:101420006E6C6F636B2020202020202000000000C5
:101430001200002020202000202000003700002083
:101440006C6F636B2020202000000000340000201F
:10145000202020202020000020202020200000002C
:101460003500002036000020140000201500002068
:1014700008700021032000F041FE10BD10B5174890
:101480000078012821D11648007808B900F0C8FB7F
:101490001448007818B900F0E1FA00F04EFB00F0B3
:1014A00017F900F0CAF802200F4908700F480078B9
:1014B00048700F48007888700E480078C8700E4851
:1014C00000780871084600F077FD10BD10B503489C
:1014D0000078FFF7CFFDFFF75EFF10BD1000002082
:1014E0001C0000201B0000204700002034000020CA
:1014F00035000020360000201A00002010B5012120
:10150000082001F045F90121084601F041F910BD1C
:1015100008B548F6FA30ADF8000048208DF8030011
:101520006946EB4800F078FE08BD1CB5082002F0C3
:101530004EFB0321012000F085FF082000900020D1
:101540008DF804000C208DF8050001208DF80600B0
:10155000684602F0C5FA102002F039FB0421012090
:1015600000F070FF1020009000208DF804000C2087
:101570008DF8050001208DF80600684602F0B0FAEB
:101580004FF4007002F023FB0921012000F05AFF04
:101590004FF40070009000208DF804000C208DF8AE
:1015A000050001208DF80600684602F099FA1CBD7E
:1015B00008B54FF4407002F013FB09208DF80000CD
:1015C00004208DF8010000208DF8020001208DF824
:1015D0000300684602F009FB4FF4407002F000FB84
:1015E0000A208DF8000001208DF8010000208DF800
:1015F000020001208DF80300684602F0F6FA4FF46D
:10160000407002F0EDFA17208DF8000005208DF8EB
:10161000010000208DF8020001208DF803006846CB
:1016200002F0E3FA08BD10B5FFF768FFFFF770FF9F
:10163000FFF77BFFFFF7BCFF10BD10B50221A448E8
:1016400000F07DFE10B90120A24908700221A048D7
:1016500000F075FE012802D100209E4908704FF469
:1016600000619B4800F06BFE10B901209A49087098
:101670004FF40061964800F062FE012802D100207C
:10168000954908709348007810B99348007838B1AC
:1016900090480078012806D18F480078012802D1AF
:1016A00000208E4908708B480078012805D18A48AF
:1016B000007810B90120894908708648007830B94F
:1016C00085480078012802D102208449087010BDA5
:1016D00010B54FF480717E4800F031FE78B14021A2
:1016E0007B4800F02CFE50B18021794800F027FEA5
:1016F00028B14FF40041764800F021FE10B90120D6
:10170000774908704FF48071714800F018FE012885
:1017100014D140216E4800F012FE01280ED1802124
:101720006B4800F00CFE012808D1C103684800F0A6
:1017300006FE012802D10020694908702021644872
:1017400000F0FDFD90B9674800781E280BDD654864
:101750000078401E634908700846007862490870A6
:101760009620FEF79DFD0120604908705F480078D3
:10177000012813D12021564800F0E1FD01280DD1A8
:1017800000F04EFA574800781E2803DC0020574925
:10179000087003E054480078524908704FF4807193
:1017A0004B4800F0CCFD10B93C2051490870402155
:1017B000474800F0C4FD10B928204D490870802129
:1017C000434800F0BCFD10B928204A4908704FF486
:1017D00000413F4800F0B3FD10B93C204549087076
:1017E00010BD08B50520FEF75BFD0821384800F064
:1017F000A6FD002823D100F013FA3A480078B0B9CA
:1018000001203D490870487000208870C870087138
:10181000084600F0D1FB0020384908700120082359
:1018200037A2342100901E20FFF783F907E0012042
:10183000082338A2342100901E20FFF77AF90820EF
:1018400002F0C5F908BD10B50520FEF729FD1021ED
:101850001F4800F074FD10B90120334908701020B2
:1018600002F0B5F910BD08B50520FEF719FD4FF4DB
:101870000071174800F063FD002827D100F0D0F96F
:1018800018480078B0B901201B4908700220487040
:1018900000208870C8700871084600F08DFB012098
:1018A00016490870082321A2342100901E20FFF75A
:1018B00040F907E00120082321A2342100901E20D6
:1018C000FFF737F94FF4007002F081F908BD00000E
:1018D000000C014018000020190000201A00002010
:1018E0001B000020340000201E0000201C000020EF
:1018F00035000020360000204700002010000020A6
:10190000506C6561736520756E6C6F636B20202071
:10191000202020004F696C3D3020746F206C6F6375
:101920006B202020200000001D0000205361666510
:10193000206F7065726174696F6E20202020200016
:101940004F696C3D3020746F20756E6C6F636B2037
:10195000202020200000000010B50121042000F00C
:1019600017FF0121480200F013FF4FF4004000F080
:1019700073FE10BD08B51E20ADF8000000208DF8E4
:1019800003006946FE4800F047FC08BD00B585B07D
:10199000FC4800F061FF002000908DF804008DF8F5
:1019A00005004FF4602002900020039004208DF881
:1019B00010006946F34800F076FF002001F030F98E
:1019C0000121F04800F09BFFEE4800F0BAFF00BF95
:1019D000EC4800F0BBFF0028FAD1EA4800F0C0FF55
:1019E00000BFE84800F0C1FF0028FAD105B000BDF3
:1019F00010B5FFF7B1FFFFF7BDFFFFF7C7FF10BD41
:101A000010B50446072301222146DE4800F0E3FF1B
:101A10000121DC4800F0B3FF00BF0221D94801F0EA
:101A20001FF90028F9D0D74801F03CF810BD2DE986
:101A3000F04107460C460025002608E03846FFF72F
:101A4000DFFF05440520FEF72BFC701CC6B2A64242
:101A5000F4DBB5FBF4F080B2BDE8F0812DE9F0478E
:101A60004FF0000A0A210220FFF7E1FF82465046AC
:101A700003F0D6F9804603F045F906464FF066328A
:101A8000C14B02F015FF044602F06AFCBF49086032
:101A90000846006803F036F90446BD4ABD4B02F023
:101AA000CBFE11D20021B948006803F017FA804636
:101AB00003F028F90646B84AB84B02F0F9FE04468E
:101AC00002F08CFEB6490870B048006803F01AF9BD
:101AD0000446AF4AAF4B02F0E9FF13D8AB480068A9
:101AE00003F010F98046AA4AAA4B03F021F80646F3
:101AF000AC4AAD4B02F0DCFE044602F06FFE323021
:101B0000A7490870A6480078002802DC0020A449F4
:101B10000870A3480078312806DBA14800783328F4
:101B200002DC32209E4908709D480078642802DB60
:101B300064209B490870BDE8F0872DE9F84F00202C
:101B400000900A210120FFF772FF0090009803F037
:101B500067F9804603F0D6F806464FF066328A4BA6
:101B600002F0A6FE044602F0FBFB9049086008461E
:101B7000006803F0C7F804468D4A8E4B02F05CFE05
:101B800011D200218948006803F0A8F9804603F0CB
:101B9000B9F80646884A894B02F08AFE044602F0EC
:101BA0001DFE874908708148006803F0ABF80446C1
:101BB0007F4A804B02F07AFF17D87C48006803F018
:101BC000A1F880467A4A7B4B02F0B2FF82467D4AFA
:101BD0007D4B02F06DFE064600227C4B02F0F2FBCC
:101BE000044602F0FBFD764908707548007800282D
:101BF00002DC00207249087071480078312806DB49
:101C00006F480078332802DC32206D4908706C4838
:101C10000078642802DB642069490870BDE8F88F09
:101C20002DE9F04700240A210320FFF700FF0446B6
:101C3000204603F0F5F8814603F064F807464FF0BC
:101C40006632514B02F034FE054602F089FB6049D2
:101C5000086000215E48006803F040F9814603F007
:101C600051F807465B4A5C4B02F022FE054602F043
:101C7000B5FD5A49087008460078022801DC0020AA
:101C8000087056480078642802DB642053490870C5
:101C9000BDE8F0872DE9F0474FF0000A0A21042043
:101CA000FFF7C5FE8246504603F0BAF8804603F0BF
:101CB00029F806464FF06632334B02F0F9FD044630
:101CC00002F04EFB464908600846006803F01AF827
:101CD0000446444A444B02F0EBFD064602F040FB4A
:101CE0003F4908600846006803F00CF880464FF052
:101CF00066323E4B02F01CFF06463D4A3D4B02F069
:101D0000D7FD044602F06AFD3B490870084600789A
:101D1000002801DC0020087037480078642802DBC6
:101D2000642035490870BDE8F0872DE9FE4F00209A
:101D300002900A211020FFF77AFE0290029803F029
:101D40006FF8804602F0DEFF06464FF066320E4B1B
:101D500002F0AEFD044602F003FB28490860084685
:101D6000006802F0CFFF8046254A264B02F0D4FEE1
:101D7000254A264BCDE9000102F0D8FB064647E094
:101D8000000801400024014066664A3F2800002008
:101D90002A3A92CB7F48FA3F90BD74B70C703E4010
:101DA000350000207EEEA2DF12373E402C000020DE
:101DB000BD5296218E75F93F4C3E6C4B3E6C3F40B8
:101DC00036000020833FB1969C4D3D4000004940C5
:101DD00024000020B8B5367656663E403400002018
:101DE000300000208C4AEA043411F93F6666064050
:101DF0004A682FA1BD8452403700002020000020F7
:101E0000E17A14AE47E1F63F22FDF675E09C713FA2
:101E10000022074B02F0D6FA0446064A064B02F0AF
:101E200085FB824602F0DAFC04490870BDE8FE8FAB
:101E3000000039401F85EB51B81EF53F38000020E7
:101E400010B50121042000F0A3FC0121880300F05B
:101E50009FFC0121084600F09BFC10BD08B54FF423
:101E60000070ADF8000003208DF8020018208DF8F6
:101E700003006946884800F0CFF94FF48060ADF860
:101E8000000004208DF803006946834800F0C4F97F
:101E900008BD1FB54FF4165000900020ADF80400A7
:101EA000ADF80600ADF80800ADF80C000C20ADF858
:101EB0000A006946794801F044FF012240F22551A9
:101EC000764801F0D6FF0121744801F0C6FF402199
:101ED000724802F0AAF81FBD08B54FF4407001F037
:101EE0007FFE25208DF8000000208DF801008DF880
:101EF000020001208DF80300684601F076FE08BD5F
:101F000010B5FFF79DFFFFF7A9FFFFF7C2FFFFF72F
:101F1000E3FF10BD10B540F22551604802F08EF885
:101F200010B301205E4908705C4802F007F85D4973
:101F30000870084600785C495C4A127888545B480F
:101F40000078401C5949087008460078072804DDCD
:101F50000020087001205649087000BF80214F48BA
:101F600002F056F80028F9D010BD00201EE04E49BE
:101F7000095CFE2918D14C4A811C525C4A4B411C19
:101F8000595C11441A46125C1144CAB2C11C595C16
:101F90008A4209D11A46411C515C464A11701A46C0
:101FA000811C515C444A1170411CC8B20828DEDB18
:101FB00000213E4A117070477CB50446FF208DF821
:101FC000000020788DF8010060788DF80200A0787C
:101FD0008DF80300E0788DF8040020798DF8050075
:101FE0002078401E61780844A1780844E1780844CC
:101FF00021790844C0B28DF8060000250DE01DF8D7
:102000000510264801F096FF00BF8021234801F00B
:10201000FFFF0028F9D0681CC5B2072DEFDB0025B3
:102020000DE01DF805101D4801F084FF00BF802160
:102030001A4801F0EDFF0028F9D0681CC5B2072D41
:10204000EFDB7CBD00B51A480078012804D10020E0
:1020500017490870FFF789FF1648007801280AD150
:102060001548007815490870002012490870124977
:1020700008700E4908700F48007802280AD10E48EF
:1020800000780F49087000200A4908700A49087052
:102090000649087000BD00000008014000380140FA
:1020A000390000203A0000203D0000203B000020C5
:1020B0003C000020450000204600002012000020C7
:1020C0001100002010B50121082000F061FB10BDB7
:1020D00008B54FF4E040ADF8000003208DF8020091
:1020E00010208DF8030069461A4800F095F808BDE5
:1020F00010B5FFF7E7FFFFF7EBFF10BD70B5054622
:102100000C46012D0AD124B90103124800F031F91F
:1021100004E04FF480510F4800F02DF9022D0AD150
:1021200024B929030B4800F024F904E04FF40051CE
:10213000084800F020F9032D0BD12CB94FF4804151
:10214000044800F016F904E04FF48041014800F023
:1021500012F970BD000C014010B50446CC48844211
:1021600008D10121042000F02DFB0021042000F003
:1021700029FB46E0C748844208D10121082000F02D
:1021800021FB0021082000F01DFB3AE0C2488442F8
:1021900008D10121102000F015FB0021102000F0D3
:1021A00011FB2EE0BD48844208D10121202000F01F
:1021B00009FB0021202000F005FB22E0B848844202
:1021C00008D10121402000F0FDFA0021402000F05C
:1021D000F9FA16E0B348844208D10121802000F0CA
:1021E000F1FA0021802000F0EDFA0AE0AE488442C6
:1021F00007D10121801500F0E5FA0021A01500F0BB
:10220000E1FA10BD10B50121084600F0DBFA00210B
:10221000012000F0D7FA10BD2DE9F041024600255B
:102220000026002000230024002791F803C00CF0B2
:102230000F0591F803C00CF0100CBCF1000F03D097
:1022400091F802C04CEA050591F800C0BCF1000FFE
:1022500031D0146800202BE04FF0010C0CFA00F391
:10226000B1F800C00CEA03069E4220D183004FF073
:102270000F0C0CFA03F7BC4305FA03FC4CEA040408
:1022800091F803C0BCF1280F06D14FF0010C0CFAF5
:1022900000FCC2F814C00AE091F803C0BCF1480F7A
:1022A00005D14FF0010C0CFA00FCC2F810C0401C24
:1022B0000828D1D31460B1F800C0BCF1FF0F34DDA1
:1022C000546800202EE000F1080C4FF0010808FAD5
:1022D0000CF3B1F800C00CEA03069E4221D1830042
:1022E0004FF00F0C0CFA03F7BC4305FA03FC4CEA61
:1022F000040491F803C0BCF1280F05D100F1080CCB
:1023000008FA0CF8C2F8148091F803C0BCF1480F29
:1023100007D100F1080C4FF0010808FA0CF8C2F8D8
:102320001080401C0828CED35460BDE8F0814FF6E1
:10233000FF710180022181700421C1707047024643
:10234000002093680B400BB1012000E00020704793
:102350000146886880B2704702460020D3680B406F
:102360000BB1012000E0002070470146C86880B230
:10237000704701617047416170470AB1016100E037
:1023800041617047C16070474FF480320A438261F7
:102390008161826182698269704702460020434BF5
:1023A00018684FF68073184040EA021008433F4B0C
:1023B000186070473E49C8617047F0B50A4600236F
:1023C00000240021002500F00046B6F1004F02D1A4
:1023D000364EF16901E0354E7168C0F3034583B2B2
:1023E00000F44016B6F5401F08D121F070612F4E61
:1023F000766826F070662D4F7E6012E000F480163D
:10240000B6F5801F06D1032606FA05F4A14341F074
:10241000706106E0460D360103FA06F6B14341F05D
:10242000706122B1460D360103FA06F6314300F021
:102430000046B6F1004F02D11C4EF16101E01B4E87
:102440007160F0BD30B500228B071C0F0F2303FA1B
:1024500004F2164B08338C1053F824309343134C7A
:1024600008348D1044F8253023468C1053F824305E
:102470008C07240F00FA04F423430C4C08348D100D
:1024800044F8253030BD0A49DC310860704700004F
:1024900000080140000C0140001001400014014000
:1024A00000180140001C01400020014000000140D4
:1024B00000002042DF48006840F00100DD4908606C
:1024C00008464068DC490840DA4948600846006828
:1024D000DA490840D74908600846006820F480209F
:1024E00008600846406820F4FE0048604FF41F0072
:1024F00088607047CF49096821F48031CD4A116066
:102500001146096821F480211160B0F5803F03D0A5
:10251000B0F5802F0ED106E0C649096841F480313C
:10252000C44A116007E0C349096841F4A021C14AC7
:10253000116000E000BF00BF704710B501460022E7
:10254000002300204A11012A02D1BA4C236806E078
:10255000022A02D1B74C236A01E0B64C636A01F04B
:102560001F02012494401C400CB1012000E0002017
:1025700010BD38B5002000900024002500BF312098
:10258000FFF7DBFF05460098401C00900098B0F56F
:10259000A06F01D0002DF2D03120FFF7CEFF08B19F
:1025A000012400E00024204638BD01460020A14A55
:1025B000106820F0F80040EAC10010607047A049A0
:1025C00008607047024600209A4B586820F47C103F
:1025D00042EA01031843974B5860704798490866D0
:1025E000704701460020934A506820F003000843DA
:1025F000506070478F48406800F00C0070470146FB
:1026000000208C4A506820F0F0000843506070476A
:1026100001460020874A506820F4E060084350607B
:10262000704701460020834A506820F4605040EA19
:10263000C1005060704729B17E4A527A02437D4BF7
:102640005A7204E07B4A527A82437A4B5A7270473C
:102650007B49D8310860704701460020754A5068B0
:1026600020F440400843506070470021714A2032F6
:102670001170704A82F82010012802D004280AD173
:1026800004E001216B4A2032117005E00521694AFE
:102690002032117000E000BF00BF70476949086038
:1026A00070476449096A0143624A1162704765498B
:1026B00044390860704730B500210022002400230F
:1026C0005C4D6D6805F00C0121B1042905D0082985
:1026D00023D105E05C4D056022E05B4D05601FE005
:1026E000544D6D6805F47012524D6D6805F48034D8
:1026F000022505EB92421CB9544D554305600BE091
:102700004C4D6D6805F400351DB1504D55430560C5
:1027100002E04D4D5543056002E04B4D056000BFA2
:1027200000BF444D6D6805F0F0010909484D6B5C30
:102730000568DD4045603F4D6D6805F4E061090ABC
:10274000434D6B5C4568DD4085603A4D6D6805F42E
:102750006051C90A3E4D6B5C4568DD40C560354D32
:102760006D6805F44041890B3A4D6B5CC568B5FB5B
:10277000F3F5056130BD29B12E4A526902432D4B54
:102780005A6104E02B4A526982432A4B5A617047CE
:1027900029B1284A92690243264B9A6104E0254AEE
:1027A00092698243234B9A61704729B1214AD269C9
:1027B0000243204BDA6104E01E4AD26982431D4B7A
:1027C000DA61704729B11B4AD2680243194BDA60BB
:1027D00004E0184AD2688243164BDA60704729B188
:1027E000144A12690243134B1A6104E0114A126938
:1027F0008243104B1A617047124940390860704794
:102800000F49C86470470B49C87170470948406A4E
:1028100040F0807007494862704701460020054A31
:1028200092680A400AB1012000E000207047014987
:1028300088727047001002400000FFF8FFFFF6FEAC
:10284000000042428004424200127A0000093D002A
:102850004C0000205C00002010B50446FA48844279
:1028600008D101214015FFF7ADFF00216015FFF7EA
:10287000A9FF17E0F548844208D101210015FFF7B0
:10288000A1FF00212015FFF79DFF0BE0F0488442D7
:1028900008D10121C803FFF795FF00214FF4004044
:1028A000FFF790FF10BD30B50246002000235068AE
:1028B000E84C20400D790C6844EA05242043506020
:1028C0009068E54C2040D1E902542C434D7944EA0C
:1028D000450420439060D06A20F470000C7C641E94
:1028E000E4B2234340EA0350D06230BD00210160CE
:1028F000017141718160C16001210174704721B192
:10290000826842F00102826003E0826822F00102E4
:102910008260704721B1826842F48072826003E075
:10292000826822F480728260704710B50023CBB2B7
:102930001AB144681C43446002E044689C4344600C
:1029400010BD816841F00801816070470146002098
:102950008A6802F008020AB1012000E000207047F6
:10296000816841F0040181607047014600208A6857
:1029700002F004020AB1012000E00020704721B1FA
:10298000826842F4A002826003E0826822F4A0021E
:1029900082607047014600208A6802F480020AB112
:1029A000012000E00020704710B50A4600210023F6
:1029B000416821F46041531E41EA4331416010BD3A
:1029C00021B1426842F40062426003E0426822F4AE
:1029D000006242607047F0B504460D4600200021B9
:1029E000092D11DDE068A5F10A0606EB460707266A
:1029F00006FA07F18843A5F10A0606EB460603FA34
:102A000006F10843E0600CE0206905EB4507072666
:102A100006FA07F1884305EB450603FA06F1084379
:102A20002061072A0FDA606B561E06EB86071F2609
:102A300006FA07F18843561E06EB860605FA06F1EC
:102A40000843606322E00D2A0FDA206BD61F06EBE5
:102A500086071F2606FA07F18843D61F06EB86066F
:102A600005FA06F10843206310E0E06AA2F10D06C2
:102A700006EB86071F2606FA07F18843A2F10D062A
:102A800006EB860605FA06F10843E062F0BD21B1C7
:102A9000826842F48012826003E0826822F480122D
:102AA000826070470146C86C80B2704766484C30FF
:102AB0000068704721B1426842F48062426003E0DE
:102AC000426822F480624260704721B1426842F459
:102AD0008052426003E0426822F4805242607047B4
:102AE0000A460021816821F4E0411143816070476A
:102AF00021B1826842F40042826003E0826822F4DD
:102B000000428260704721B1826842F40212826002
:102B100003E0826822F402128260704701460020BE
:102B20008A6802F400120AB1012000E00020704718
:102B3000F0B504461546002000220026092911DDC3
:102B4000E068A1F10A0707EB470C072707FA0CF228
:102B50009043A1F10A0707EB470703FA07F2104376
:102B6000E0600CE0206901EB410C072707FA0CF24A
:102B7000904301EB410703FA07F210432061A06B79
:102B8000C0F30156EF1C06F1010CA7EB0C0707EB95
:102B9000870C1F2707FA0CF29043EF1C06F1010C7B
:102BA000A7EB0C0707EB870701FA07F21043A063B6
:102BB000F0BD10B50A4600210023816B21F44011BD
:102BC000531E41EA0351816310BD08B500230093F1
:102BD0000090009B0B440093009B1A6008BD08B551
:102BE000024600200090009201F12800009B18444A
:102BF00000900098006880B208BD0A460021416834
:102C0000164B194011434160704741628262704720
:102C10000A460021416821F01F01114341607047BD
:102C200040B109490831096841F40001064A0832F7
:102C3000116007E004490831096821F40001024AE3
:102C40000832116070470000002401400028014054
:102C5000003C0140FFFEF0FFFDF7F1FFFFFD3FFFED
:102C60000246002013680B400BB1012000E0002059
:102C70007047CA430260704770B5024600200023C7
:102C800000240B125568CEB205EA060415681D40F3
:102C900015B10CB1012000E0002070BD00220A1225
:102CA000D34303607047000010B50446FE488442D9
:102CB00008D10121C014FFF785FD0021E014FFF7C2
:102CC00081FDC4E0B4F1804F08D101210846FFF72F
:102CD00086FD00210120FFF782FDB8E0F348844221
:102CE00008D101210220FFF77AFD00210220FFF721
:102CF00076FDACE0EE48844208D101210420FFF7C4
:102D00006EFD00210420FFF76AFDA0E0E94884423F
:102D100008D101210820FFF762FD00210820FFF7FC
:102D20005EFD94E0E448844208D101211020FFF7C1
:102D300056FD00211020FFF752FD88E0DF48844255
:102D400008D101212020FFF74AFD00212020FFF7B4
:102D500046FD7CE0DA48844208D101214014FFF7A7
:102D600031FD00216014FFF72DFD70E0D54884424D
:102D700009D10121C804FFF725FD00214FF40020EF
:102D8000FFF720FD63E0D048844209D10121080506
:102D9000FFF718FD00214FF48010FFF713FD56E0F8
:102DA000CA48844209D101214805FFF70BFD0021E3
:102DB0004FF40010FFF706FD49E0C548844208D1F2
:102DC00001214020FFF70BFD00214020FFF707FD08
:102DD0003DE0C048844208D101218020FFF7FFFC7C
:102DE00000218020FFF7FBFC31E0BB48844208D182
:102DF00001218015FFF7F3FC0021A015FFF7EFFC80
:102E000025E0B648844209D101210804FFF7DAFC25
:102E100000214FF48030FFF7D5FC18E0B048844221
:102E200009D101214804FFF7CDFC00214FF4003007
:102E3000FFF7C8FC0BE0AB48844208D101218804AD
:102E4000FFF7C0FC00214FF48020FFF7BBFC10BD52
:102E500000220288944B98420ED0994B98420BD096
:102E6000B0F1804F08D0914B984205D0904B9842DA
:102E700002D0904B984204D14FF68F731A404B8882
:102E80001A438D4B984207D08C4B984204D04FF692
:102E9000FF431A40CB881A4302808B8883850B88B6
:102EA0000385814B98420BD0854B984208D08B4BC1
:102EB000984205D08A4B984202D08A4B984201D161
:102EC0000B7A038601238382704770B500240022A9
:102ED0000023058C4FF6FE7635400584028C8388EE
:102EE000048B4FF68F752C40B51E2C400D882C435B
:102EF000751E2A400D892A434D882A436A4DA842EF
:102F00000BD06F4DA84208D0744DA84205D0744D27
:102F1000A84202D0734DA84213D14FF6F7752A404C
:102F20004D892A434FF6FB752A408D882A434FF678
:102F3000FF652B404FF6FF552B408D892B43CD89E4
:102F40002B4383800483CD888586028470BD70B551
:102F5000002400220023058C4FF6EF7635400584CF
:102F6000028C8388048B48F6FF752C404FF6FF4592
:102F70002C400D884FF6FF7606EA05252C434FF6C8
:102F8000DF752A400D8906EA05152A434D8806EAB1
:102F900005152A43444DA84202D0494DA8421DD1EF
:102FA0004FF67F752A404D894FF6FF7606EA0515E4
:102FB0002A434FF6BF752A408D8806EA05152A4335
:102FC0004FF6FF352B404FF2FF752B408D8906EAF7
:102FD00085052B43CD8906EA85052B438380048331
:102FE000CD880587028470BD70B5002400220023BF
:102FF000058C4FF6FF6635400584028C8388848BF0
:103000004FF68F752C404FF6FC752C400D882C43E5
:103010004FF6FF552A400D894FF6FF7606EA052543
:103020002A434D8806EA05252A431F4DA84202D0AF
:10303000234DA8421DD14FF2FF752A404D894FF60E
:10304000FF7606EA05252A434FF6FF352A408D888C
:1030500006EA05252A434EF6FF752B404DF6FF750F
:103060002B408D8906EA05152B43CD8906EA051507
:103070002B4383808483CD888587028470BD70B59F
:10308000002200230024058C4EF6FF76354005848F
:10309000038C8488828B48F6FF752A404FF6FF45E3
:1030A0002A400D8820E00000002C01400004004070
:1030B00000080040000C00400010004000140040D8
:1030C00000340140004C01400050014000540140D8
:1030D00000180040001C004000200040004001405B
:1030E00000440140004801404FF6FF7606EA0525FE
:1030F0002A434DF6FF752B400D8906EA05352B4313
:103100004D8806EA05352B43FA4DA84202D0FA4D08
:10311000A84208D14BF6FF752C408D894FF6FF76FB
:1031200006EA85152C4384808283CD88A0F8405020
:10313000038470BD828B4FF2FF331A408283828BEF
:103140004FF6FF7303EA01231A4382837047F0B5F9
:103150000C461546002200210026078C4EF6FF7C07
:1031600007EA0C070784828B018C4FF6FF7707EA8A
:10317000043640F6FF473A404FF6FF7707EA052747
:103180003A434FF6FF7707EA03373A43D94FB8423D
:103190000ED0D94FB8420BD0B0F1804F08D0D74FE6
:1031A000B84205D0D64FB84202D0D64FB84206D169
:1031B0004DF6FF77394046F48057394305E047F62E
:1031C000FF57394044F48057394382830184F0BD6E
:1031D000828B4FF6F3731A408283828B0A43828379
:1031E0007047F0B50C461546002200210026078CDA
:1031F0004FF6FF6C07EA0C070784828B018C4FF6B1
:10320000FF7707EA04264FF60C773A404FF6FF7730
:1032100007EA03172F433A43B64FB8420ED0B64FD2
:10322000B8420BD0B0F1804F08D0B44FB84205D0AF
:10323000B34FB84202D0B34FB84206D14FF6FF5752
:10324000394046F48077394305E04FF2FF57394063
:1032500044F48077394382830184F0BD028B4FF2BE
:10326000FF331A400283028B4FF6FF7303EA0123F8
:103270001A4302837047F0B50C4615460022002120
:103280000026078C4FF6EF7C07EA0C070784028BB9
:10329000018C4FF6FF7707EA041640F6FF473A40E5
:1032A0004FF6FF7707EA03373A434FF6FF7707EA0F
:1032B00005273A438F4FB8420ED08F4FB8420BD0FC
:1032C000B0F1804F08D08D4FB84205D08C4FB84236
:1032D00002D08C4FB84206D14FF6DF77394046F026
:1032E0001007394305E04FF65F77394044F0100787
:1032F000394302830184F0BD028B4FF6F3731A4009
:103300000283028B0A4302837047F0B50C461546D0
:1033100000220021068C4FF6FE773E400684028B89
:10332000018C4FF60C7632407E1C06EA03162E43C3
:103330003243704EB0420ED06F4EB0420BD0B0F15F
:10334000804F08D06D4EB04205D06D4EB04202D0D5
:103350006C4EB04206D14FF6FD76314044F0010686
:10336000314305E04FF6F576314044F00106314334
:1033700002830184F0BD70B505460C465D48854268
:103380000ED05D4885420BD0B5F1804F08D05B4828
:10339000854205D05A48854202D05A48854200D11C
:1033A00000E000BF208850B92389A28861882846A0
:1033B000FFF7ABFFE1882846FFF79EFF25E0208856
:1033C00004280AD12389A28861882846FFF753FF81
:1033D000E1882846FFF742FF17E0208808280AD135
:1033E0002389A28861882846FFF7FBFEE1882846EA
:1033F000FFF7EEFE09E02389A28861882846FFF7DF
:10340000A6FEE1882846FFF795FE70BD2DE9F04144
:1034100005460C4600260127608808B9022600E010
:103420000026A088012801D1022700E0012720887A
:10343000A0B92389A28861882846FFF766FFE18842
:103440002846FFF759FF23893A4631462846FFF7B9
:1034500012FFE1882846FFF701FF13E02389A288C5
:1034600061882846FFF707FFE1882846FFF7F6FE48
:1034700023893A4631462846FFF747FFE188284628
:10348000FFF73AFFBDE8F0810A884B881A438B8822
:103490001A43CB881A430B891A434B891A438B89E9
:1034A0001A43A0F8442070474FF6FF718180002135
:1034B0000180C180418001727047002101804180FC
:1034C0008180C180018141818181C181704700215A
:1034D00001804180012181800021C18001817047EC
:1034E0000021018041808180C180018141818181F1
:1034F00070470000002C01400034014000040040EF
:1035000000080040000C004021B1028842F0010296
:10351000028004E002884FF6FE731A400280704772
:1035200031B1B0F8442042F40042A0F8442005E054
:10353000B0F84420C2F30E02A0F8442070471AB13C
:1035400083890B43838102E083898B4383817047A6
:103550008182704741EA0203A0F8483070471AB1EF
:1035600083890B43838102E083898B438381704786
:1035700001894FF6F8721140018170470A46002117
:1035800001894FF68F73194011430181704730B59F
:1035900004460D4629462046FFF7F0FF208940F0FB
:1035A0000700208130BD2DE9F04104460D46164646
:1035B0001F46602D06D13B46012231462046FFF7CB
:1035C0005AFE05E03B46012231462046FFF79DFEAC
:1035D00029462046FFF7D2FF208940F007002081CE
:1035E000BDE8F08130B50C4600210189C9B24FF623
:1035F000FF7505EA0325154325432943018130BDA5
:103600002DE9F04105460E461746984600244346EC
:103610003A4631462846FFF7E5FF2C894FF6F87009
:10362000044044F007044FF68F70044044F07004E7
:103630002C81BDE8F081F0B504460D4616461F46C4
:103640003B46324629462046FFF7CCFF208940F40E
:1036500080402081F0BD0185828270470A460021AA
:1036600001884FF68F731940114301807047F0B500
:103670000C4615461E460021002200230189028BBC
:10368000038C4FF6F877394021434FF6FC473A4018
:1036900040F201173A434FF6DD773B404FF6FF7794
:1036A00007EA06172F433B43018102830384F0BDE1
:1036B0000A460021018B4FF68F7319401143018395
:1036C00070470A460021018B48F6FF7319404FF6F8
:1036D000FF7303EA02231943018370470A4600215E
:1036E000818B4FF68F7319401143818370470A46CF
:1036F0000021818B48F6FF7319404FF6FF7303EAF0
:10370000022319438183704721B1028842F080026D
:10371000028004E002884FF67F731A4002807047EF
:1037200021B1828842F00402828004E082884FF650
:10373000FB731A408280704721B1828842F00802F0
:10374000828004E082884FF6F7731A4082807047C7
:1037500021B1828842F00102828004E082884FF623
:10376000FE731A40828070470A460021018B4FF693
:10377000F77319401143018370470A460021018BFA
:103780004FF2FF7319404FF6FF7303EA0223194308
:10379000018370470A460021818B4FF6F773194069
:1037A0001143818370470A460021818B4FF2FF73DA
:1037B00019404FF6FF7303EA0223194381837047D0
:1037C0000A460021018B4FF6FB7319401143018318
:1037D00070470A460021018B4FF6FF3319404FF620
:1037E000FF7303EA02231943018370470A4600214D
:1037F000818B4FF6FB7319401143818370470A4652
:103800000021818B4FF6FF3319404FF6FF7303EA17
:1038100002231943818370470A460021018B4FF62A
:103820007F7319401143018370470A460021018BC1
:10383000C1F30E014FF6FF7303EA0223194301831C
:1038400070470A460021818B4FF67F731940114360
:10385000818370470A460021818BC1F30E014FF628
:10386000FF7303EA02231943818370470A4600214C
:10387000018C4FF6FD7319401143018470470A46CD
:103880000021018C4FF6F7731940114301847047F2
:103890000A460021018C4FF6DF7319404FF6FF7383
:1038A00003EA02131943018470470A460021018C80
:1038B0004FF67F7319404FF6FF7303EA0213194363
:1038C000018470470A460021018C4FF6FF531940CE
:1038D0004FF6FF7303EA02231943018470470A4637
:1038E0000021018C4FF2FF7319404FF6FF7303EA7A
:1038F00002231943018470470A460021018C4DF6CA
:10390000FF7319404FF6FF7303EA02331943018432
:10391000704730B5002301248C40A3B2048C9C4333
:103920000484048C02FA01F5ADB22C43048430BD4A
:1039300030B5002304248C40A3B2048C9C4304843F
:10394000048C02FA01F5ADB22C43048430BD70B58D
:103950000346002000241846183001258D40ACB2E3
:103960001D8CA5431D8409B1082909D100EB610014
:10397000056825F0700505600568154305600EE0D3
:103980000D1FC5F34E052844056825F4E045056084
:1039900005684FF6FF7606EA02263543056070BDDE
:1039A00021B1028842F00202028004E002884FF650
:1039B000FD731A400280704721B1028842F0040270
:1039C000028004E002884FF6FB731A4002807047C1
:1039D00021B1828842F08002828004E082884FF622
:1039E0007F731A408280704702884FF6F7731A403F
:1039F000028002880A430280704782884FF68F73E4
:103A00001A40828082880A438280704702894FF67A
:103A1000F8731A40028102890A43028170470289C1
:103A20004FF67F731A40028102890A430281704770
:103A30008184704781857047818670470187704710
:103A400081877047A0F84010704702884FF6FF4307
:103A50001A40028002880A43028070470146888E1D
:103A600070470146088F70470146888F70470146AE
:103A7000B1F8400070470146888C70470146088DB8
:103A8000704702460020138A0B400BB1012000E072
:103A900000207047CA430282704730B502460020BA
:103AA00000230024158A05EA0103958905EA01042B
:103AB00013B10CB1012000E0002030BDCA430282E6
:103AC00070470000002044490860091D0860091D76
:103AD0000860091D086041483F491431086070477B
:103AE00000213D498279002A3AD00A4612680368CB
:103AF0009A430B461A600A1D126803689A430B1D0D
:103B00001A60027911440A6803681A430A60324A4B
:103B10000832126803689A432F4B08331A601A1D43
:103B2000126803689A432C4B0C331A604279102AAE
:103B30000ED11A1F126803681A43274B08331A6004
:103B40001A1D126803681A43234B0C331A600DE0E8
:103B50002149427911440A6803681A430A6005E062
:103B6000027911440A6803689A430A607047002189
:103B7000016001710C21417100218171704716496A
:103B8000103109680143144A103211607047014630
:103B90000020114A143212680A400AB1012000E0E4
:103BA000002070470C49143108607047014600201E
:103BB0000022094B1B6803EA0102074B14331B6800
:103BC0000B4013B10AB1012000E000207047024908
:103BD000143108607047000000040140FFFF0F002F
:103BE00031490143314A1160704770B5002100230B
:103BF0000F22C47804B32D4C246804F4E064C4F5A7
:103C0000E064210AC1F10403CA40447804FA03F1D4
:103C10008478144021430901254C0678A155047885
:103C200004F01F050124AC4005786D11AD0005F1CD
:103C3000E025C5F8004109E0047804F01F050124DF
:103C4000AC401C4D0678761145F8264070BD1A4AE6
:103C50000A400243154B1B1F1A60704739B1134AC3
:103C6000121D12680243114B1B1D1A6006E00F4A19
:103C7000121D126882430D4B1B1D1A6070470428E9
:103C800008D14FF0E021096941F004014FF0E02232
:103C9000116107E04FF0E021096921F004014FF0C4
:103CA000E0221161704700000000FA050CED00E011
:103CB00000E400E080E100E080FFFF1F10B5044653
:103CC000FB48844209D101218803FEF77BFD0021D6
:103CD0004FF48040FEF776FD32E0F648844209D189
:103CE00001214804FEF77BFD00214FF40030FEF770
:103CF00076FD25E0F048844209D101218804FEF7D1
:103D00006EFD00214FF48020FEF769FD18E0EB48BE
:103D1000844209D10121C804FEF761FD00214FF45E
:103D20000020FEF75CFD0BE0E548844208D101214C
:103D30000805FEF754FD00214FF48010FEF74FFDFB
:103D400010BD2DE9F04786B005460E460024A24678
:103D500000BFA1460027B08900B100BF2F462C8AC2
:103D60004CF6FF700440F08804432C82AC894EF678
:103D7000F3100440B0883189084371890843044333
:103D8000AC81AC8A4FF6FF400440B0890443AC825A
:103D900001A8FEF790FCC648874202D1DDF810A0CA
:103DA00001E0DDF80CA0A88900F4004040B10AEB66
:103DB000CA0000EB0A1031684900B0FBF1F807E0D7
:103DC0000AEBCA0000EB0A1031688900B0FBF1F879
:103DD0006420B8FBF0F004012009642101FB108984
:103DE000A88900F4004040B1322000EBC900B0FBCC
:103DF000F1F000F00700044308E0322000EB091066
:103E00006421B0FBF1F000F00F0004432C8106B0F8
:103E1000BDE8F0874FF41651016000218180C18018
:103E200001810C21418100218181704710B502463A
:103E30000020108A4FF2FF0318400B884C88234360
:103E40008C882343CC8823431843108210BD002163
:103E5000018041808180C180704721B1828942F414
:103E60000052828104E082894DF6FF731A408281FC
:103E70007047F0B50346002400260025002040F6D8
:103E80006A17B94200D100BF1846C1F3421401F0CD
:103E90001F06012707FA06F5012C01D10C3004E0BA
:103EA000022C01D1103000E014301AB107682F4302
:103EB000076002E00768AF430760F0BD1AB1838A6C
:103EC0000B43838202E0838A8B4383827047028A9A
:103ED0004FF6F0731A400282028A0A430282704748
:103EE00082894FF2FF731A40828182890A4382815C
:103EF000704721B1828942F00202828104E0828906
:103F00004FF6FD731A4082817047028A4FF6DF73C5
:103F10001A400282028A0A430282704721B1028A51
:103F200042F48042028204E0028A4BF6FF731A4098
:103F300002827047C1F30802828070470146888878
:103F4000C0F308007047818941F001018181704709
:103F5000028BD2B20283028B42EA012202837047B3
:103F6000028B02F47F420283028B0A430283704772
:103F700021B1828A42F02002828204E0828A4FF6D6
:103F8000DF731A408282704721B1828A42F01002A8
:103F9000828204E0828A4FF6EF731A408282704771
:103FA00021B1828A42F00802828204E0828A4FF6BE
:103FB000F7731A408282704721B1828942F400422D
:103FC000828103E08289C2F30E028281704721B1AF
:103FD000828A42F40062828204E0828A4FF2FF7396
:103FE0001A4082827047828A4FF6FB731A4082829F
:103FF000828A0A438282704721B1828A42F0020299
:10400000828204E0828A4FF6FD731A4082827047F2
:1040100002460020B1F5007F00D100BF13880B409D
:104020000BB1012000E00020704701F40072B2F5EE
:10403000007F00D100BFCA430280704770B50246BE
:10404000002400230025002040F66A16B14200D16A
:1040500000BFC1F3421501F01F03012606FA03F366
:10406000012D02D19689334006E0022D02D1168A35
:10407000334001E0968A33400C12012606FA04F41C
:104080001688344013B10CB1012000E0002070BD4F
:1040900010B50022002340F66A14A14200D100BFEF
:1040A0000A1201249440A3B2DC43048010BD000036
:1040B000003801400044004000480040004C0040EF
:1040C000005000400E49086070470D494860704735
:1040D0000B49886070474AF6AA2009490860704772
:1040E0004CF6CC4006490860704701460020044A5F
:1040F000D2680A400AB1012000E0002070470000A9
:10410000003000400CB50020019000906C48006821
:1041100040F480306A49086000BF6948006800F4D4
:10412000003000900198401C0190009818B9019847
:10413000B0F5A06FF1D16248006800F4003010B112
:104140000120009001E0002000900098012843D158
:104150005C48006840F010005A4908600846006852
:1041600020F0030008600846006840F00200086084
:1041700053484068524948600846406848600846CD
:10418000406840F4806048600846406820F47C1035
:1041900048600846406840F4E810486008460068F7
:1041A00040F08070086000BF4548006800F0007073
:1041B0000028F9D04248406820F003004049486098
:1041C0000846406840F00200486000BF3C48406834
:1041D00000F00C000828F9D10CBD10B5FFF792FFD4
:1041E00010BD10B53648006840F001003449086041
:1041F000084640683449084031494860084600682C
:10420000324908402E4908600846006820F48020A2
:1042100008600846406820F4FE0048604FF41F0024
:104220008860FFF7DAFF4FF000602949086010BD91
:1042300010B5002100200022214B5B6803F00C0127
:1042400021B1042906D0082928D107E0214B224CAE
:10425000236027E01F4B204C236023E0184B5B6852
:1042600003F47010164B5B6803F48032022303EBF7
:10427000904022B9194B4343174C23600DE0104B7B
:104280005B6803F4003323B1144B4343124C2360A7
:1042900003E0104B4343104C236003E00D4B0E4CE6
:1042A000236000BF00BF064B5B68C3F303130C4CD5
:1042B000E15C094B1B68CB40074C236010BD00003C
:1042C00000100240002002400000FFF8FFFFF6FE51
:1042D00008ED00E000127A006000002000093D00B7
:1042E00064000020704770477047754600F02CF856
:1042F000AE4605006946534620F00700854618B0D3
:1043000020B5FBF771FFBDE820404FF000064FF0ED
:1043100000074FF000084FF0000B21F00701AC46FA
:10432000ACE8C009ACE8C009ACE8C009ACE8C00919
:104330008D46704710B50446AFF300802046BDE8B7
:104340001040FBF73CBF000000487047F404002019
:1043500001491820ABBEFEE72600020070470000AE
:1043600021F00042A2F16052B2F5801F01F000433B
:1043700028BFD2F17F6C0BD95FEA001C43EAC2026E
:1043800042EB507018BF704728BF20F00100704703
:10439000B2F5801FBCBF184670474FEA410C1CF5B0
:1043A000001F02D2084600F094BD70B500F02AFB51
:1043B00000000089FFF7F6BF4FF00040A0F5800035
:1043C0007047000010B591EA030F48BF83F0004327
:1043D00000F1B683841A71EB030C05D2121943EB7A
:1043E0000C03001B61EB0C01DFF824E14FEA1154D0
:1043F000A4EB135C1EEA430F18BF9EEA445F73D020
:1044000023EA0E03DCF1200E21EA045143F4801369
:1044100032D322FA0CFE10EB0E0023FA0CFE41EB15
:104420000E01CCF1200E03FA0EFE10EB0E0051F13E
:104430000001B1F5801FCCF1200E32D201EB045106
:1044400012FA0EF2BDE8104058BF7047401C38BF4A
:104450005FEA420218BF7047002814BF20F0010035
:1044600041F100014FEA410313F5001F38BF7047C7
:10447000A1F1C04100F014BB012A43EB0302ACF1EF
:10448000200CDCF11F0E32BF4FF0000E23FA0CF3AC
:1044900010EB030041EB0451B4EB115FD0D0A1EB62
:1044A000045101F5801149085FEA300001EB045125
:1044B0000ED350F1000038BF12FA0EFE08D1BDE84D
:1044C0001040C9E7401C38BF5FEA4202CAD1C3E7C7
:1044D000BDE810404FEA410313F5001F38BF704795
:1044E000A1F1C04100F0DCBA9EEA445F08D011EAB5
:1044F0005E0FBDE8104004BF01F00041002070478E
:10450000BDE8104070B500F07DFA00BF64FBBE3E10
:104510000000E0FF491058BFC1F140415B1058BF97
:10452000C3F140438B42EFF3008070472DE9C04157
:1045300030B4DFF8A0C23CEA111418BF3CEA1314EF
:1045400000F0EC8081EA03051CEA111444EAD574FA
:1045500018BF1CEA131500F0C780A4EB05044FF048
:10456000004545EAC12145EAC32341EA505143EAE7
:10457000525304F17F74994204F500344FEAC0208D
:104580004FEAC22208BF904200F09C804FEA1365B8
:104590000FF24016765D4FEA134506FB05F7C7F1AB
:1045A000807706FB07F74FEAD737A7FB0368764209
:1045B000C8F58038A7FB06CE38BFA8F1010807FB75
:1045C00008E64FF0000EA6FB028CE6FB03CEDCF102
:1045D000000CCEF1004E38BFAEF1010EA6FB0C5818
:1045E0004FF000074FF00005E6FB0E87A1FB08C661
:1045F000A0FB07CE16EB0E0645F10005E1FB0765B3
:1046000015F1E04E7EBFA4F580345FEA46066D41A9
:1046100016F1800745F100054FEA17274FEA0666B5
:1046200047EA0567A6F1DE46B6F1805F4FEA152539
:104630001FD9384624F0010C05EBC471BCF1FE6FA4
:1046400001EB0C1102D8F0BCBDE8008124425CBF34
:1046500001F5801E9EEAC47F02D4F0BCBDE8008153
:10466000244238D4F0BCA1F1C041BDE8004100F0C3
:1046700017BA4FEAD22242EA43524FEAD323A7FBAA
:1046800002864FEAD02040EA415007FB03661EEA4B
:104690000E0F4FEAD12105FB026658BFA6EB00566C
:1046A000B6EB00564FEA520E4EEAC37E18EB0E0EE2
:1046B00056EB530EBDD518EB02085E417F1C55F139
:1046C0000005B6E74FF480154FF000074FF00006E5
:1046D0004FF00008ADE7F0BC4FF0000001F1C04121
:1046E00001F00041BDE8008111EA0C1F0CEA13152E
:1046F00000D00CE013EA0C1F00F025804FF0000002
:10470000F0BC81EA030101F00041BDE80081F0BC8A
:10471000BDE8004181EA030100F0C2B9F0BCBDE888
:10472000004170B500F06EF9097EFC3E00F007B85C
:1047300081EA03014FF0000001F00041704781EA77
:10474000030100F0ADB9F0BCBDE800414FF000003E
:1047500021497047FFFDFBF9F7F5F4F2F0EEEDEBC0
:10476000E9E8E6E4E3E1E0DEDDDBDAD8D7D5D4D36F
:10477000D1D0CFCDCCCBCAC8C7C6C5C4C2C1C0BFBB
:10478000BEBDBCBBBAB9B8B7B6B5B4B3B2B1B0AFC1
:10479000AEADACABAAA9A8A8A7A6A5A4A3A3A2A1A5
:1047A000A09F9F9E9D9C9C9B9A9999989797969560
:1047B00095949393929191908F8F8E8E8D8C8C8BFC
:1047C0008B8A898988888787868585848483838284
:1047D000828181800000FF070000F87F4FEA1153BB
:1047E000A3F58063D3F11E03A8BFD3F1200C08DB2F
:1047F0004FF0004242EAC12252EA505232FA03F02C
:10480000704709420BD4102BC4BF0020704703F53A
:10481000787CBCF1FF3F05D04FF0FF3070474FF080
:104820000000704770B500F0EDF800BF4992248099
:1048300000207047F0E7000051EA030C17D41CF584
:10484000801F58BFBCF5801F00F10680994218BF39
:10485000704708BF9042704707D711F5801F58BFB7
:1048600013F5801F19D499427047894270471CF58F
:10487000801F08D5BCF5801FF7D58B4218BF704745
:1048800008BF824270474FF4001C1CEB410F38BF39
:104890001CEB430F01D28B42704770B500F0B2F8A9
:1048A000922449004FF000514FF08053FFF732BE81
:1048B000DFF848C170B51CEA111E1EBF1CEA1315B3
:1048C0009EEA0C0F95EA0C0F00F06F8081EA03045A
:1048D00023EA4C134EEAD47E21EA4C1141F48011B4
:1048E00043F48013AE44A1FB024CA0FB0365AEF180
:1048F0007F7E361955EB0C05A1FB034C4CF10003F0
:10490000A0FB021C16EB0C06654153F100030942A3
:1049100018BF46F0010613F4007F0BD14FEA0331B4
:104920004FEA0530340341EA155140EA16506FF062
:1049300003020AE04FEAC3214FEAC520F40241EA2C
:10494000555140EA56506FF0020202EB2E4201EB45
:10495000025585EACE710AD05FEA440C18BF24F0F4
:10496000004450F1000041F1000120EAD47040F20F
:10497000FE7C624500D270BDA84214BF4FF0804457
:104980004FF04044002E08BF0024BEF1806FA8BF46
:10499000A1F1C041BDE8704080F282804FF000007C
:1049A00001F1C04101F0004170479EEA0C0F0CEA92
:1049B000131518BF95EA0C0F06D04FF0000081EADE
:1049C000030E0EF0004170BD00F01CF88900013E9E
:1049D00000F007B800F009B84FEA430C5FEA5C5CEE
:1049E00008D081EA030100F05BB84FEA410C5FEAAE
:1049F0005C5CF6D14FF00000014970470000FF07F2
:104A00000000F87F0EF1020E2EF0030E5EF8046B2C
:104A1000364205D4012A43EB030515F5001F12D8D1
:104A2000012841EB010C1CF5001F0CD80ED14FEAF8
:104A3000D17C15F5001F0CEB4C0C0CF1020C08BFDF
:104A40004CEBD37C04E04FF0080C01E04FEAD37C40
:104A50000CEB4C0526FA05F606F00706B6F1040C39
:104A600006D20EEB860CBDE870404CF0010C60479E
:104A7000DFE80CF0090B02024FF000414FF000009C
:104A8000A1F5002170BD19461046012851EB010423
:104A900018BFD4F5001484BF002001F0004170BDA0
:104AA0000808A0F500114FEA3101704753EA010CE4
:104AB00017D41CF5801F58BFBCF5801F00F106807D
:104AC0008B4218BF704708BF8242704707D713F563
:104AD000801F58BF11F5801F19D48B4270479B422D
:104AE00070471CF5801F08D5BCF5801FF7D599428B
:104AF00018BF704708BF904270474FF4001C1CEB72
:104B0000430F38BF1CEB410F01D2994270470FB4DD
:104B10000CBC03BCFFF7C1BE91EA030F10B581F0D6
:104B200000413FF557AC83F0004300F009B80000A6
:104B300010B591EA030F48BF83F000433FF54AAC3C
:104B4000841A71EB030C07D212198CF0004C43EB62
:104B50000C03001B61EB0C01DFF8A4E14FEA1154D8
:104B6000A4EB135C1EEA430F18BF9EEA445F00F0FB
:104B7000B08023EA6E03524221EA0451C3EB6E0374
:104B800038BF5B1EDCF1200E25D322FA0CFE10EBA1
:104B90000E0043FA0CFE41EB0E01CCF1200E03FA9D
:104BA0000EFE10EB0E0051F10001CCF1200E29D4C5
:104BB00012FA0EF201EB0451BDE8104058BF7047E5
:104BC000401C1CBFB2F1004F704700280CBF491CAD
:104BD00020F00100704712EB020E43EB030218BFF6
:104BE0004FF0010E4EEA4202ACF1200CDCF11E0E39
:104BF00054D943FA0CFE10EB0E0051F1FF31CCF109
:104C00001E0ED5D50EF1010E12FA0EFE404141EBFB
:104C1000010101EB445C5FEA5C5C10D910EBDE70D3
:104C200001EB045138BFBEF1004FBDE8104018BF82
:104C3000704700280CBF491C20F00100704730D29B
:104C40004FEAD42C11F5001124F400641BD0B1FA02
:104C500081F20B3AA41AA41ED2F12003914030FA3B
:104C600003F31943904001EBCC71002C01EB04518C
:104C7000BDE81040A8BF704701F1C0414FF00000EF
:104C800001F000417047B0FA80F310FA03F100D14F
:104C900010BDE41A173C4805C90AE4E701EB0451CA
:104CA00010BD491001EB0451BDE810404FEA30003F
:104CB00002E04FF0000170474A0008BF0042F8D000
:104CC000B2F5001F28BF704701F000414FF000000F
:104CD00070479EEA445F07D011EA5E0FBDE81040BE
:104CE00004BF002100207047BDE8104070B5FFF7F9
:104CF00089FE00BF40DFF63E83F00041104670475A
:104D00000000E0FF43004FEAD30C4FEA3C0C434065
:104D10001FBF40070CF1605113F0FE4F70471CF0AD
:104D2000006F03D100200CF0004170470CF00043ED
:104D300043EA507010B540EACC0000F084F800BFA0
:104D4000000000924FEA0001FFF7AABE4FF00041B9
:104D50004FF00000A1F500217047000090EA010F1C
:104D600048BF81F0004100F1C080421A3CBF801A68
:104D700089184FEAD0524FF07F4C1CEA410FA2EB4A
:104D8000D15318BF9CEA026F00F03B804FF0004CFB
:104D90004CEA00204CEA012121FA03FC10EB0C0C38
:104DA0001ED202F1FF325FEA1C2040EBC25038BF36
:104DB00070471CF07F0F4FEA400C18BFBCF17F4FCB
:104DC00038BF7047C3F12003994008BF20F00100AD
:104DD000BCF17F4F38BF7047A0F1C04000F079B8F8
:104DE0004FEA3C00000A40EBC25028BF1CF0FF0F06
:104DF0004FEA400CE6D018BFBCF17F4F38BF704778
:104E0000EAE79CEA026F05D010EA5C0F08BF00F0E9
:104E10000040704710B500F016F800BF64FBBE3EBE
:104E2000B0FA80F310FA03F2C3F19D030AD0D9055A
:104E300001EB1220530638BF704700F1010008BF94
:104E400020F0010070470EF1020E2EF0030E5EF806
:104E5000044B244204D44FEA4102B2F17F4F11D8EF
:104E60004FEA4003B3F17F4F0CD80ED14FEAD07C0C
:104E7000B2F17F4F0CEB4C0C0CF1020C08BF4CEB69
:104E8000D17C04E04FF0080C01E04FEAD17C0CEB40
:104E90004C0324FA03F404F00704B4F1040C06D222
:104EA0000EEB840CBDE810404CF0010C6047DFE8CD
:104EB0000CF0070802024FF00040A0F5800010BD82
:104EC0000846420018BFD2F1807288BF00F000404F
:104ED00010BDFF2141EAD050C005704790EA010F94
:104EE00048BF81F000413FF540AF421A04D882F03C
:104EF0000042A0EB020011444FEAD0524FF07F4C29
:104F00001CEA410FA2EBD15318BF9CEA026F4AD0B2
:104F10004FF0004C4CEA00204CEA012121FA03FC3E
:104F2000B0EB0C0C0FD412F0FE0F36D05FEA4C0041
:104F30001DD5001240EBC25038BF70471CF03F0F28
:104F400018BF70470BE0A2F101025FEA1C2040EBA2
:104F5000C25038BF70471CF07F0F18BF7047C3F1B5
:104F60002003994014BF401E20F0010070478008C4
:104F70004FEA122308BF7047B0FA80FCA2EB0C0284
:104F8000CCF1280C60FA0CF093EA122F04BF00EB6E
:104F9000C25070474FEAC3707047130A5FEADC10D3
:104FA00008BF7047F6E79CEA026F04D010EA5C0F76
:104FB00008BF0020704710B5FFF745FF40DFF63E01
:104FC00081F0004070470000000000000000002F4A
:104FD000000000000700070000147F147F14002465
:104FE0002A7F2A1200626408132300364955225092
:104FF00000000503000000001C22410000004122C7
:105000001C000014083E08140008083E08080000B0
:1050100000A06000000808080808000060600000A8
:10502000002010080402003E5149453E0000427F26
:105030004000004261514946002141454B31001872
:1050400014127F10002745454539003C4A49493034
:1050500000017109050300364949493600064949EE
:10506000291E0000363600000000563600000008F9
:1050700014224100001414141414000041221408D6
:1050800000020151090600324959513E007C1211BB
:10509000127C007F49494936003E41414122007F50
:1050A0004141221C007F49494941007F090909010A
:1050B000003E4149497A007F0808087F0000417F8F
:1050C0004100002040413F01007F08142241007F41
:1050D00040404040007F020C027F007F0408107FA8
:1050E000003E4141413E007F09090906003E415111
:1050F000215E007F091929460046494949310001CE
:10510000017F0101003F4040403F001F2040201F21
:10511000003F4038403F00631408146300070870E4
:10512000080700615149454300007F414100005597
:105130002A552A55000041417F0000040201020463
:105140000040404040400000010204000020545450
:105150005478007F484444380038444444200038A0
:105160004444487F00385454541800087E09010212
:105170000018A4A4A47C007F080404780000447DE7
:105180004000004080847D00007F10284400000023
:10519000417F4000007C04180478007C08040478F7
:1051A00000384444443800FC2424241800182424E3
:1051B00018FC007C080404080048545454200004DF
:1051C0003F444020003C4040207C001C2040201CEC
:1051D000003C4030403C004428102844001CA0A063
:1051E000A07C004464544C4414141414141400009F
:1051F000000000000000000000000000FC000000B3
:10520000000002000000000C020C02000000000080
:10521000000090D0BCD0BC90000300030000182414
:10522000FE448C000302070201001824D8B04C8011
:10523000000300010201C038E438E000010202016D
:10524000020208060000000000000000000000004C
:1052500000F80402000000010204000204F800004B
:105260000004020100009060F8609000000001005E
:1052700000002020FC2020000000010000000000B1
:105280000000000008060000000020202020200070
:10529000000000000000000000000000000200000C
:1052A00000000080601C0200040300000000F804FD
:1052B0000404F8000102020201000008FC000000E2
:1052C00000020302000018844424180003020202B2
:1052D000020008042424D80001020202010040B0A8
:1052E00088FC80000000000302003C242424C40049
:1052F000010202020100F824242CC0000102020273
:1053000001000C04E41C0400000003000000D82489
:105310002424D80001020202010038444444F80069
:105320000003020201000000100000000000020063
:105330000000000020000000000006000000002027
:1053400050880402000000000102909090909000AC
:10535000000000000000000204885020000201004C
:1053600000001804C4241800000002000000F80423
:10537000E494F80001020202020000E09CF08000C8
:1053800002030000030204FC2424D80002030202EA
:105390000100F80404040C0001020202010004FCF4
:1053A0000404F80002030202010004FC24740C004F
:1053B00002030202030004FC24740C000203020036
:1053C0000000F0080444CC4000010202010004FC8B
:1053D0002020FC040203000003020404FC04040077
:1053E000020203020200000404FC04040604040395
:1053F000000004FC24D00C0402030200030204FC9D
:1054000004000000020302020203FC3CC03CFC005A
:1054100003000300030004FC30C4FC040203020088
:105420000300F8040404F80001020202010004FC75
:1054300024241800020302000000F8848404F80009
:1054400001020207050004FC246498000203020024
:105450000302182424448C000302020201000C04FD
:10546000FC040C0000020302000004FC0000FC0429
:10547000000102020100047C80E01C040000030023
:1054800000001CE03CE01C00000300030000049C42
:10549000609C0400020300030200041CE01C0400E2
:1054A0000002030200000C84641C040002030202D8
:1054B00003000000FE020200000007040400000ECA
:1054C00030C00000000000010200000202FE0000E7
:1054D00000040407000000040204000000000000B3
:1054E000000000000000000008080808080800008C
:1054F000020000000000000000000040A0A0C0006A
:1055000000010202030204FC2020C000000302028A
:10551000010000C02020600000010202020000C063
:105520002024FC0000010202030200C0A0A0C00071
:105530000001020202000020F824240400020302F9
:1055400002000040A0A0602000070A0A0A0404FC30
:105550002020C0000203020003020020E40000003B
:10556000000203020000000020E400000808080711
:10557000000004FC80E02020020302000302040477
:10558000FC000000020203020200E020E020C00054
:1055900003000300030020E02020C00002030200FB
:1055A000030200C02020C00000010202010020E030
:1055B0002020C000080F0A02010000C02020E000E7
:1055C0000001020A0F0820E0402020000203020030
:1055D00000000060A0A020000002020203000020E2
:1055E000F820000000000102020020E00020E0009E
:1055F00000010202030220E020806020000003017D
:1056000000006080E0806000000300030000206074
:105610008060200002030003020020E02080602060
:105620000808070100000020A0602000000203021B
:105630000200000020DE020000000007040000005D
:1056400000FF00000000000F00000002DE2000004C
:105650000004070000000201020404020000000030
:10566000000000000000000000000000000000003A
:105670000000000000F800000000000000333000CF
:10568000000000100C06100C0600000000000000D6
:10569000000040C07840C0784000043F04043F044C
:1056A0000400007088FC08300000001820FF211E54
:1056B0000000F008F000E018000000211C031E218B
:1056C0001E0000F00888700000001E212324192706
:1056D000211010160E000000000000000000000065
:1056E0000000000000E0180402000000000718207D
:1056F000400000020418E0000000004020180700ED
:105700000000404080F0804040000202010F010292
:105710000200000000F0000000000101011F010173
:105720000100000000000000000080B070000000D8
:105730000000000000000000000000010101010164
:1057400001010000000000000000003030000000F7
:1057500000000000000080601804006018060100CE
:10576000000000E010080810E000000F10202010DA
:105770000F00001010F8000000000020203F202043
:1057800000000070080808887000003028242221DA
:105790003000003008888848300000182020201190
:1057A0000E000000C02010F8000000070424243F71
:1057B000240000F80888880808000019212020111A
:1057C0000E0000E0108888180000000F1120201142
:1057D0000E0000380808C83808000000003F00002C
:1057E00000000070880808887000001C2221212217
:1057F0001C0000E010080810E00000003122221117
:105800000F00000000C0C0000000000000303000A9
:105810000000000000800000000000008060000028
:105820000000000080402010080000010204081061
:105830002000404040404040400004040404040470
:10584000040000081020408000000020100804021E
:105850000100007048080808F00000000030360120
:105860000000C030C828E810E000071827242314DF
:105870000B000000C038E0000000203C230202279B
:10588000382008F8888888700000203F20202011E8
:105890000E00C03008080808380007182020201023
:1058A000080008F808080810E000203F2020201019
:1058B0000F0008F88888E8081000203F20202320E7
:1058C000180008F88888E8081000203F200003002E
:1058D0000000C03008080838000007182020221EE9
:1058E000020008F808000008F808203F2101012103
:1058F0003F20000808F8080800000020203F202072
:10590000000000000808F8080800C08080807F00C0
:10591000000008F888C028180800203F2001263819
:10592000200008F8080000000000203F2020202070
:10593000300008F8F800F8F80800203F003F003F6A
:10594000200008F830C00008F808203F20000718A1
:105950003F00E01008080810E0000F102020201081
:105960000F0008F808080808F000203F2101010195
:105970000000E01008080810E0000F182424385038
:105980004F0008F8888888887000203F2000030CAA
:1059900030200070880808083800003820212122B3
:1059A0001C00180808F8080818000000203F200014
:1059B000000008F808000008F808001F2020202038
:1059C0001F000878880000C83808000007380E015A
:1059D0000000F80800F80008F800033C0700073C46
:1059E0000300081868808068180820302C03032CF6
:1059F00030200838C800C83808000000203F2000C8
:105A0000000010080808C838080020382621202087
:105A10001800000000FE020202000000007F40406B
:105A20004000000C30C000000000000000010638FB
:105A3000C00000020202FE000000004040407F0063
:105A40000000000004020202040000000000000048
:105A50000000000000000000000080808080808046
:105A6000808000020204000000000000000000002E
:105A70000000000080808080000000192422222283
:105A80003F2008F8008080000000003F1120201116
:105A90000E000000008080800000000E11202020F9
:105AA0001100000000808088F800000E11202010F6
:105AB0003F200000808080800000001F22222222E0
:105AC0001300008080F0888888180020203F202064
:105AD00000000000808080808000006B949494938C
